:0418000008EF34F0C9
:081808000B6ED8CF0CF0E0CF0D
:101810000DF00001E9CF13F0EACF0EF0E1CF0FF0A9
:10182000E2CF10F0D9CF11F0DACF12F0F3CF19F0E8
:10183000F4CF1AF0FACF1BF0F5CF1CF0F6CF1DF065
:10184000F7CF1EF000C015F001C016F002C017F06F
:1018500003C018F0A0A230EF0CF0A1B299EF15F080
:101860009DA636EF0CF09EB633EF15F0A0AA3CEF24
:101870000CF0A1BADCEF14F015C000F016C001F0B6
:1018800017C002F018C003F013C0E9FF0EC0EAFF52
:101890000E8E0FC0E1FF10C0E2FF11C0D9FF12C0D1
:1018A000DAFF19C0F3FF1AC0F4FF1BC0FAFF1CC017
:1018B000F5FF1DC0F6FF1EC0F7FF0B500DC0E0FF87
:1018C0000CC0D8FF1000F76AD60FF66E180EF7227C
:1018D0000900F5501200000302FFFFFFFFFFFFFFAA
:1018E000FFFFFFFFFFFFF76AF60FF66E180EF722F5
:1018F0000900F550120000FF02FFFFFFFFFFFFFF8E
:10190000FFFFFFFFFFFFF76A160FF66E190EF722B3
:101910000900F550120040000800400000000000DF
:1019200000000000000000000000000000000000B7
:10193000000000000000F76A460FF66E190EF7224D
:101940000900F550120040000000400000000000B7
:101950000000000000000000000000000000000087
:10196000000000000000F76A760FF66E190EF722ED
:101970000900F550120009024300020100803209FB
:1019800004000001020201000524001001042402E9
:101990000205240600010524010001070581030852
:1019A00000FA09040100020A0000000705020240D3
:1019B00000010705820240000100F76ACA0FF66EB7
:1019C000190EF7220900F55012000200F76ADC0F29
:1019D000F66E190EF7220900F550120012171B209F
:1019E000FFFFFFFFF76AF40FF66E190EF7220900EA
:1019F000F550120012011001020000405746474BFB
:101A0000000101020001F76A160FF66E1A0EF722A6
:101A10000900F5501200040309040C034E004F00A6
:101A20004B00490041002003420054005500530080
:101A300042004B004200330020004B0042004300B4
:101A4000540052004C00F76A560FF66E1A0EF72239
:101A50000900F55012005645520050474D005357AB
:101A60004F0053574300535750004E5653004144C4
:101A7000430052535400534D500056434C004343CF
:101A80004C0052415700494F4C00494F4800494EC5
:101A90005000534854005245470053494D00555398
:101AA000420044424700414343006D92699468A458
:101AB00002D06894FCD7E8EF14F0400E0401016FE7
:101AC000040E036F180E026F880E006F046B040E75
:101AD000076F580E066F0001000C70A002D0EDDFFA
:101AE0007090689AF1EF14F06A6A6892F7EF14F058
:101AF0000101CA91C9BFCA81C99FC951100803E237
:101B0000000E016E1BD0CAA10DD0036AC95100019D
:101B1000DADEFF0802E1000E01D0010E016E0101C4
:101B20000DD00CD0036AC9510001DDDEFF0802E1CF
:101B3000000E01D0010E016E010100D00001000C69
:101B40000101CE51D003F3CF01F0F4CF00F0D10367
:101B5000F3500026CF51D003F3500020026E000155
:101B6000000C036A0101C851700FE96E0F0E0320CB
:101B7000EA6EEF6AC8C1C9F10001BADF015227E07D
:101B80000101CF6BC8C1CEF1D16B080ED06F00013F
:101B9000D7DF010101C0E9FF040E0224EA6EEF6AFB
:101BA000CF6BC8C1CEF1D16B080ED06F0001C8DF7A
:101BB00002C0CAF101C0C9F1040E0101C927000E1B
:101BC000CA23C9C1E9FF040ECA25EA6EEF6A000103
:101BD000000C010E0101C76FC7510F0807E3C7C111
:101BE000C8F10001BEDF0101C72BF6D70001000CD0
:101BF0002D6A2C6A250E2B6E800E2A6E2E6A2F6A95
:101C0000080E306E7F6B7E91326A316A7A6B7B91FF
:101C1000000C0101BD6BBD5101080AE3036ABD510F
:101C2000280FE96E000E0320EA6EEF6ABD2BF3D792
:101C30000001DEDF056A010E066E046A000C68967C
:101C4000000C6A6A686A9F0E6B6E3D0E696E6E6A62
:101C5000C0DFDFDF160E706E68A602D0F0DFFCD7A3
:101C60006D982BDF030E096EFDEF14F06984689800
:101C70006D8203EF15F0689C09EF15F0C2C124F0E6
:101C8000000CFF0E246E000C0101C06B27522CE0EB
:101C9000C0513F0829E30750000A000105E0020A8D
:101CA00009E0010A0DE012D0036A26505CDEE8CF9D
:101CB000C1F10CD0036A2650A6DEE8CFC1F106D0F0
:101CC000036A26508FDEE8CFC1F100D0262A27060E
:101CD0000101C051C02B580FE96E040EEA6ED8B056
:101CE000EA2AC1C1EFFFD2D7275204E1C051400810
:101CF00001E0046AC0C1C2F10001C0DF000C266A25
:101D0000076A04011B51010A000107E0030A0AE007
:101D1000010A0BE0220A1BE02BD0120E276E030EE5
:101D2000076E28D0430E276E25D0020E076E036A79
:101D300004011A51210FE96E000E0320EA6EEFCF65
:101D400026F0036A265000015EDE276E13D0036A78
:101D500004011A5100013ADE266E263C01D006D05D
:101D6000036A265000DE276E05D002D08ADF0ED02F
:101D700088DF0CD004011F5305E127501E5D02E2ED
:101D80001EC427F0010E046E00017EDF14EF10F078
:101D90000101BF5306E1040E096E00011ADFE7D00E
:101DA0000101050E096E040EC26F980EC16F010E7F
:101DB000C06FC0510F08D8A0DAD0C0C1C8F100016F
:101DC000D0DE0101C36B036AC05100018CDDFF0846
:101DD00065E0040E0101C36FD890C035036A0001AD
:101DE000AADD0900F5CF03F00101C46F03C0C5F1FE
:101DF000CF6BC0C1CEF1D16B080ED06F0001A0DE59
:101E000001C0C7F1010E01010124016E000E022084
:101E1000036E01C0E9FF040E0324EA6EC4C1EFFFA4
:101E2000CF6BC0C1CEF1D16B080ED06F000188DE40
:101E300001C0C7F1020E01010124016E000E022053
:101E4000036E01C0E9FF040E0324EA6EC2C1ECFF79
:101E5000ED52C1C1EFFFD890C035036A00016BDDC0
:101E60000900F5CF03F00101C1270350C223880EFA
:101E7000C66FC5B1C681C5B3C683CF6BC0C1CEF135
:101E8000D16B080ED06F00015BDE010101C0E9FFDC
:101E9000040E0224EA6EC6C1EFFF0001036A0101CD
:101EA000C051000110DDFF0847E00101C383CF6B83
:101EB000C0C1CEF1D16B080ED06F000141DE02C06F
:101EC000C8F101C0C7F1040E0101C727000EC823E5
:101ED000020EC725016E000EC821036E01C0E9FF86
:101EE000040E0324EA6EC2C1ECFFED52C1C1EFFF44
:101EF000D890C035036A000106DD0900F5CF03F074
:101F00000101C1270350C223CF6BC0C1CEF1D16BF9
:101F1000080ED06F000114DE02C0C8F101C0C7F185
:101F2000040E0101C727000EC823C7C1E9FF040E34
:101F3000C825EA6E400EEF6E0101C351060802E1AA
:101F40000E0EC36F036AC0510001BDDC010803E03F
:101F50000101C3890001036A0101C051700FE96EDC
:101F60000F0E0320EA6EC3C1EFFFC02B22D7000182
:101F70000CEF10F004011951000A00010DE0010AF4
:101F800015E0020A20E0060A2AE0030A31E00E0A00
:101F900031E0010A37E046D006C058F40401596B1D
:101FA000020E0101C26F000169DE3ED004011A2D4C
:101FB00007D0010E06160101C26B00015FDE02D0E0
:101FC00000015FDE31D004011A2D06D00682010126
:101FD000C26B000153DE02D0000153DE25D0020E99
:101FE000046E1AC425F00101C26B000147DE1CD04B
:101FF00086D61AD005C058F4010E0101C26F000147
:102000003DDE12D004011A5101080AE31AC405F09A
:102010001AC4BFF10001BCD60101C26B00012EDE63
:10202000000102D02EDE00D0ADEF11F005C0BFF1EF
:1020300004011951000A000105E00A0A0CE0010A36
:102040002BE03FD00401586B596B020E0101C26FA7
:10205000000114DE38D00101BF531BE0010EBF5D4B
:10206000036A0001AADC016E04011C5DD8A002D045
:1020700001010FD0036A1C51280FE96E000E0320E6
:10208000EA6EEFCF58F4010E0101C26F0001F6DDD8
:1020900002D00001F6DD17D00101BF530FE0036A43
:1020A00004011C51280FE96E000E0320EA6E1AC4C9
:1020B000EFFF0101C26B0001E1DD02D00001E1DDB3
:1020C00002D0DFDD00D0ADEF11F00101C091BFBF44
:1020D000C081BF9FC0A119D0CF6BBFC1CEF1D16B62
:1020E000080ED06F00012CDD02C0C2F101C0C1F1A9
:1020F000040E0101C127000EC223C1C1E9FF040E75
:10210000C225EA6E880EEF6E0FD0CF6BBFC1CEF145
:10211000D16B080ED06F000113DD010101C0E9FF92
:10212000040E0224EA6EEF6A000117EF11F00101BC
:10213000C091BFBFC081BF9FC0A119D0CF6BBFC12D
:10214000CEF1D16B080ED06F0001FADC02C0C2F1F3
:1021500001C0C1F1040E0101C127000EC223C1C19B
:10216000E9FF040EC225EA6E840EEF6E10D0CF6B2D
:10217000BFC1CEF1D16B080ED06F0001E1DC0101CF
:1021800001C0E9FF040E0224EA6E840EEF6E000126
:102190001FEF11F00101C091BFBFC081BF9FC0A15F
:1021A00019D0CF6BBFC1CEF1D16B080ED06F00013B
:1021B000C7DC02C0C3F101C0C2F1040E0101C22795
:1021C000000EC323C2C1E9FF040EC325EA6EEFCFA0
:1021D000C1F110D0CF6BBFC1CEF1D16B080ED06F63
:1021E0000001AEDC010101C0E9FF040E0224EA6E29
:1021F000EFCFC1F1C1AF02D0C1B502D0000E01D006
:10220000010E016E00012BEF11F01CC4C9F170DC4E
:1022100001522EE004011951010A000105E0020AF1
:102220000BE0030A11E022D01CC4BFF14ED701011C
:10223000C26B000123DD1CD01CC4BFF178D70101A3
:10224000C26B00011BDD14D00401586B596B1CC418
:10225000BFF100019FD7015203E0010E0401586F46
:10226000020E0101C26F000109DD02D00ADD00D0BB
:10227000ADEF11F0FE0E246E000C04011C2D01D0F8
:1022800002D01C534FE11951000A00010BE0010A72
:102290000DE0210A1CE0010A1FE0030A30E0010AF8
:1022A00035E03DD0010E816FE5DF3BD0040EEA6ED4
:1022B000580EE96EE26A330EE16E080E016EE6CF4B
:1022C000EEFF012EFCD71EC4C2F1D8DC2AD0020ECC
:1022D000816F7E81CFDF25D0040EEA6E580EE96E45
:1022E000E26A2A0EE16E070E016EE6CFEEFF012EC6
:1022F000FCD7070E0101C26F0001C0DC12D01AC466
:102300007FF00101C26B0001B9DC0BD01AC432F0BE
:102310001BC431F00101C26B0001B0DC02D0B1DCA2
:1023200000D004010001ADEF11F0046A040118515E
:102330007F0B000A000107E0010A07E0030A07E03B
:10234000230A07E008D016D608D070D606D05DD78D
:1023500004D093D702D095DC00D013EF14F0010124
:10236000CF6BC0C1CEF1D16B080ED06F0001A0ECD5
:102370000DF0010101C0E9FF040E0224EA6EEFCF67
:10238000C2F1C151020806E1C2AD02D0C16B02D058
:10239000010EC16FC15103081CE1840EC26FCF6BE7
:1023A000C0C1CEF1D16B080ED06F0001A0EC0DF0D2
:1023B00002C0C6F101C0C5F1040E0101C527000E1F
:1023C000C623C5C1E9FF040EC625EA6E840EEF6E72
:1023D00007D0C12D03D0C80EC26F02D0880EC26FC5
:1023E000D890C035036A00019BEC0CF00900F5CFD2
:1023F00003F00101C36F03C0C4F1CF6BC0C1CEF1C4
:10240000D16B080ED06F0001A0EC0DF001C0C5F13A
:10241000010E01010124016E000E0220036E01C0B5
:10242000E9FF040E0324EA6EC3C1EFFFC4B1C28109
:10243000C4B3C283CF6BC0C1CEF1D16B080ED06FD5
:102440000001A0EC0DF0010101C0E9FF040E02241F
:10245000EA6EC2C1EFFF0001000C036A0101CD5119
:10246000700FE96E0F0E0320EA6EEF521BE0CF6B88
:10247000CDC1CEF1D16B080ED06F0001A0EC0DF0F4
:1024800002C0CFF101C0CEF1040E0101CE27000E33
:10249000CF23CEC1E9FF040ECF25EA6EEFCFCEF1F8
:1024A000CEAF02D0000E01D0010E016E0001000C73
:1024B000C8C1CDF1D2DF0152D8B486D00101CF6BB3
:1024C000C8C1CEF1D16B080ED06F0001A0EC0DF0A9
:1024D00002C0CEF101C0CDF1040E0101CD27000EE6
:1024E000CE23010ECD25016E000ECE21036E01C05C
:1024F000E9FF040E0324EA6EC9C1EFFFCB510208C5
:1025000020E1CF6BC8C1CEF1D16B080ED06F0001B6
:10251000A0EC0DF002C0CEF101C0CDF1040E01011E
:10252000CD27000ECE23CDC1E9FF040ECE25EA6EE5
:10253000EFCFCCF1CCAD02D0CB6B02D0010ECB6F84
:102540001AD0CB51040817E1CF6BC8C1CEF1D16BC3
:10255000080ED06F0001A0EC0DF0010101C0E9FFF1
:10256000040E0224EA6EEFCFCCF1CCAD03D0010E05
:10257000CB6F01D0CB6BCB2D03D0C80ECC6F02D06C
:10258000880ECC6FCAB1CC81CAB3CC83CF6BC8C123
:10259000CEF1D16B080ED06F0001A0EC0DF002C09F
:1025A000CEF101C0CDF1040E0101CD27000ECE23E6
:1025B000CDC1E9FF040ECE25EA6ECCC1EFFF010EBE
:1025C000016E05D000D00001000E016E0101000176
:1025D000000C8151010A03E0030A15E028D0EA6AE1
:1025E000330EE96E040EE26E180EE16E080E016EF7
:1025F000E6CFEEFF012EFCD70101C26B00013EECDD
:102600000EF0816B16D0EA6A2A0EE96E040EE26EB5
:10261000180EE16E070E016EE6CFEEFF012EFCD71D
:10262000816B0101C26B00013EEC0EF002D0816BA8
:1026300000D058EF13F00101CF6BC0C1CEF1D16BC8
:10264000080ED06F0001A0EC0DF002C0C2F101C075
:10265000C1F1010E01010124016E000E0220036E82
:1026600001C0E9FF040E0324EA6E036AEFCF01F014
:1026700003C002F000014CEF13F07B91020E010148
:10268000C06FC16F00016BDE000C7B817D6B020EA1
:102690000101C06F0001CFD701C07CF07C5301E184
:1026A000ECDF5FEF13F00101BF5304E1000191D7AC
:1026B00006D00101BF51020803E10001E6D7010184
:1026C0000001000CC0C16EFF0101C05303E0040E05
:1026D000096E02D0020E096E000174EF13F0056A54
:1026E000046A25C0C0F1EED7EDEF13F0C0C1CDF103
:1026F000B4DE01524AE00101CF6BC0C1CEF1D16B13
:10270000080ED06F0001A0EC0DF002C0C9F101C0AD
:10271000C8F1040E0101C827000EC923020EC82506
:10272000016E000EC921036E01C0E9FF040E0324EF
:10273000EA6EECCF03F0ED52EFCFC6F103C0C7F164
:10274000C7C1EAFFC6C1E9FFC2C1E2FFC1C1E1FFE3
:10275000C4C102F0C3C101F0015202E0022A02D05A
:10276000025206E0E6CFEEFF012EFCD7022EFAD78A
:10277000C0C1C8F1C4C1CAF1C3C1C9F1C5C1CBF15F
:10278000000196DE015003D000D0000E016E000C57
:10279000020E0101C06FC26B3B0EC16FC46B7AC0E9
:1027A000C3F1020EC56F0001A1DF7AC080F07A6B21
:1027B000000C7A5301E0ECDFF4EF13F00101BF539A
:1027C0000EE1042C05D0000144EC0EF006D001010E
:1027D0000450020803E1000182D7010106D0BF5175
:1027E000020803E10001E5D701010001000C0830F7
:1027F0000101BD6FBD33BD331F0EBD1708524FE140
:10280000040100513C0B0101BE6F430E040100178F
:102810000101BE51340825E104010451800B01E09F
:10282000046B000182D56D98243C07D00101C06B78
:10283000030EC16F000193DD12D00101C06B020EC7
:10284000C16F00018CDD2450FE0809E00101C86B56
:10285000CA6B24C0C9F1040ECB6F000129DE1DD064
:102860000101BE5104081AE1BF6B00011CDF010128
:10287000C06B020EC16F000172DD2450FE080CE037
:10288000243C01D009D00101C86BCA6B24C0C9F136
:10289000010ECB6F00010CDE00D001018AD0085080
:1028A000040818E1430E04010417FF0E246E010111
:1028B000BF6B000183DF243C01D00AD00101C86B4B
:1028C000CA6B24C0C9F1020ECB6F0001F1DD00D04C
:1028D0006FD0010108B430D0CF6BBDC1CEF1D16B48
:1028E000080ED06F0001A0EC0DF001C0BFF1010196
:1028F00001C001F0040E0224036E01C0BFF1C06FDD
:10290000CF6BBDC1CEF1D16B080ED06F0001A0EC32
:102910000DF0010101C0E9FF040E0224EA6EEF5040
:10292000430BC0C1EAFFBFC1E9FFEF6EBDC1BFF1FC
:102930000001B9DE3DD00101CF6BBDC1CEF1D16B3D
:10294000080ED06F0001A0EC0DF002C0C0F101C074
:10295000BFF1040E0101BF27000EC023BFC101F06B
:10296000040EC025036EBFC1BFF1C06FCF6BBDC1E8
:10297000CEF1D16B080ED06F0001A0EC0DF002C0BB
:10298000C2F101C0C1F1040E0101C127000EC22332
:10299000C1C1E9FF040EC225EA6EEF50430BC0C16E
:1029A000EAFFBFC1E9FFEF6EBDC1BFF1000106DF65
:1029B0000101000115EF15F0A19A095201E13ED085
:1029C00068523CE068A404D069A402D055EF0DF031
:1029D0006DA201D033D068AA04D069AA02D06DEFED
:1029E0000DF068A204D069A202D074EF0DF068A0C7
:1029F00004D069A002D021EF0EF068A804D069A825
:102A000002D036EF0EF068AC04D069AC02D03BEFD8
:102A10000EF00101BC6B68A60AD069A608D06CCF85
:102A200008F000011FEC0EF0E2D602D0010105D043
:102A30000101BC51BC2B0308EEE200013CEF0CF09D
:102A400042545553424B423320342E333200C95046
:102A5000BFC1C9FFC6889E96C7B0FED7016AC6B877
:102A6000012A91EF15F0C7BA04D00101666BC7B413
:102A7000668F01016651662BBD6F140E0001AD6FAC
:102A800001015A5301E151D0BD517F0826E3BD53E6
:102A900006E0C69C9EA6FED7C950C688BC6FBD2D59
:102AA00007D0BCC1CFF03F0E0001CF1717D00101F6
:102AB000BD51010812E2010E616FCFC064F1BCC1CB
:102AC00065F10001CF51CF2B036A01015C25E96E4E
:102AD0005D510320EA6EBCC1EFFF00010101BD5151
:102AE0007F0823E2010E606FCFC062F1036A00012C
:102AF000CF5101015C25E96E5D510320EA6EEFCFF5
:102B000063F10001CF51CF2B036A01015C25E96E0F
:102B10005D510320EA6EEFCFBEF1BEC1BFF10001EF
:102B200096D701015E2BD8B45F2B9E9600013CEF37
:102B30000CF0CEC0B3FFCDC0B2FFAD5301E0AD0786
:102B4000AB51AC1105E0AB51D8B4AC07AB0703D027
:102B5000AC6B0A0EAB6FA1923CEF0CF04E56533AA1
:102B6000206E506F727453746174655B25645D3DB3
:102B70003078253032580D0A00004E56533A206EF8
:102B8000506F7274436F6E6669675B25645D3D309C
:102B900078253032580D0A004552523A2057726F4C
:102BA0006E672053574F20466F726D61743A205301
:102BB000574F20525843597C53574E7C5057520020
:102BC00050574D537769746368533A206E5265705D
:102BD0006561743D256C642C206E4F6E54696D6583
:102BE0003D256C642C206E4F666654696D653D25ED
:102BF0006C640D0A00004552523A496E76616C6968
:102C000064652052656769737465722041646472FB
:102C10006573732025730D0A00004552523A496EC0
:102C200076616C69646520526567697374657220AA
:102C30004164647265737320307825580D0A000072
:102C40004552523A496E76616C69646520526567F7
:102C5000697374657220416464726573732030789F
:102C600025580D0A00004552523A496E636F727240
:102C700065637420666F726D61742025730D0A00A0
:102C80004932433A205265616420526567203078AA
:102C90002530325828307825303258290D0A000066
:102CA0004932433A204E6F2072656164206F700D87
:102CB0000A004932433A20577269746520526567A9
:102CC0002030782530325828307825303258290D78
:102CD0000A004932433A204E6F20777269746520AA
:102CE0006F700D0A00004932433A204354524C524F
:102CF00045475B313A335D3D3078253032582C30D2
:102D000078253032582C3078253032580D0A0000A2
:102D10004552523A496E636F727265637420666FF2
:102D2000726D61742025730D0A00525354204F6B4D
:102D30000D0A00005645522025730D0A00004F6B06
:102D40000D0A000053574F204F6B0D0A00005357D8
:102D500043204F6B0D0A0000535750204F6B0D0A54
:102D600000004E5653204F4B20256C640D0A000086
:102D70004E5653204F4B0D0A0000494F48204F6BD1
:102D80000D0A0000494F48204552523A20496E63CF
:102D90006F727265637420494F4820636F6D6D6177
:102DA0006E642E0D0A00494F4C204F6B0D0A000037
:102DB000494F4C204552523A20496E636F727265FA
:102DC000637420494F4820636F6D6D616E642E0DF2
:102DD0000A00494E5020300D0A00494E5020310D56
:102DE0000A005348542025332E31662025332E31D6
:102DF000660D0A0041444320256C640D0A004442DC
:102E000047204F6E0D0A0000444247204F66660D72
:102E10000A00444247204F6B0D0A00004F6B2025EB
:102E2000582C25582C25582C25582C25582C2558FD
:102E30000D0A414444523D307825580D0A526561CF
:102E400064636F756E743D256C640D0A00004F6BF2
:102E50000D0A00004552523A556E6B6E6F776E2028
:102E600025730D0A0000010EEA6E9F0EE96EEF5009
:102E70000EE00F0E016E006A002EFED7012EFBD76A
:102E80008F0E006E002EFED70000EF2EF2D7000C42
:102E90006D6A696A080E6F6E945030090101946E74
:102EA000096A206AF2BE208EF29E000109EC0EF043
:102EB00020BEF28E5DEF17F0EBD783EF17F0206A9C
:102EC000F2BE208EF29E09EC0EF020BEF28E6D6AEC
:102ED000140E6F6E696A6D86010E096E73EF17F03E
:102EE0006DB601D0ECD7092C0BD06DBA09D0686A49
:102EF000696AA08AC00EF212110E696E020E096E86
:102F000084EF17F0D9D7ECD709500208FCE13EEF67
:102F100035F07BB101D0FDD77D517D2BA00FE96E3F
:102F2000040EEA6ED8B0EA2AEFCF7CF1010100016D
:102F30007C517D5D08E3206AF2BE208EF29E3DEC5E
:102F400013F020BEF28E01017CC101F00001AAEF56
:102F500017F0DFD701C07BF101017B510D0812E1B1
:102F60000001A851020802E3A86B20D0036AA8510F
:102F7000880FE96E000E0320EA6EEF6A010EA96F5A
:102F800015D001017B510C0812E20001A8511F0865
:102F9000D8B002D001010BD0A851A82B036A880F2A
:102FA000E96E000E0320EA6E7BC1EFFF0101000114
:102FB00085EF35F00101806B805114083DE3010E6F
:102FC000826F816B0001A8510101815D2EE2815168
:102FD00002082BE3036A8151880FE96E000E03207B
:102FE000EA6EEFCF83F18351600806E283517A08DD
:102FF00003E38351DF0B01D08351836F8051040DB4
:10300000F350856B846F036A81518425016E85516D
:1030100003220150000123EC0DF0016E0101835DDC
:1030200002E0826B02D0812BCDD7825303E080C1B6
:1030300001F004D0802BC0D7FF0E016E000154EFC9
:1030400031F093968A960A0E01019F6F00010BDF03
:1030500093968A865DEF31F0080E016E020E006EC7
:10306000002EFED78A9A939A020E006E002EFED78B
:103070000101AC378A98D8B09388D8A09398938AE6
:1030800081AAFED7012E01D002D00001E7D7020E9F
:10309000006E002EFED78A9A939A00009388020E43
:1030A000006E002EFED7020E006E002EFED7938A11
:1030B00081AAFED7016A020E006E002EFED781B8EB
:1030C00001808A9A939A8A9893980001000CFF0EC7
:1030D0000101736F746F756F766F9388020E006EC7
:1030E000002EFED7938A020E006E002EFED78A981D
:1030F0009398020E006E002EFED78A9A939A4E0E77
:10310000AC6F0001A9DF060E0101AC6F0001A4DF66
:10311000FF0E0101AC6F00019FDFFF0E0101AC6FDC
:1031200000019ADF93980000938A81AAFED7020ECD
:10313000006E002EFED700D000009388020E006EB5
:10314000002EFED75FEF31F00101AA91F2BEAA81F5
:10315000F29E00017A513E0802E23E0E7A6F7A51E9
:103160007A2B036A3B0FE96E000E0320EA6EA9C1B9
:10317000EFFFF29E0101AAB1F28E0001C3EF18F039
:10318000A8C1A9F1E1D7206AF2BE208EF29E020EFC
:103190000101CD6F00012DEC12F020BEF28E015224
:1031A00008E0206AF2BE208EF29EC8EC13F020BE2A
:1031B000F28EF8EF18F07A513E0817E2206AF2BE5C
:1031C000208EF29E020E0101CD6F00012DEC12F057
:1031D00020BEF28E015208E0206AF2BE208EF29EDE
:1031E000C8EC13F020BEF28EE6D7A7C1A8F1C8D76D
:1031F000000C0900F5520CE0F6CFA5F1F7CFA6F1CF
:10320000F5CFA7F1D8DFA5C1F6FFA6C1F7FFF1D72B
:10321000000C0900F6CF9FF1F7CFA0F1F5CFA7F191
:10322000CADF9FC1F6FFA0C1F7FF01019E2F01D0A9
:1032300002D00001EED70001000C0101A5510508E4
:1032400002E2020EA527A5C1A8F1A837A837A83722
:10325000F80EA817A651A813A75301E0A88F9388CA
:10326000020E006E002EFED7938A020E006E002E14
:10327000FED78A989398020E006E002EFED78A9A87
:10328000939AE00EAC6F0001E7DEA8C1ACF1E4DE7A
:10329000010E0101AC6F0001DFDE93980000938AFC
:1032A00081AAFED7020E006E002EFED700D00000CD
:1032B0009388020E006E002EFED7000C006A016A91
:1032C0000101AE51D890AFB1002600320132AFB348
:1032D000002600320132AFB5002600320132AFB70E
:1032E000002600320132AFB9002600320132AFBBF6
:1032F000002600320132AFBD002600320132AFBFDE
:103300000026003201320001F4EF19F00101AC6B2C
:10331000AA6B0A0EAB6FA96BA751A81103E1000EAF
:10332000016EC3D0AC51AC2B036AA725E96EA8513E
:103330000320EA6EEFCFADF1AD512D080DE1010E86
:10334000AA6FAC51AC2B036AA725E96EA8510320E4
:10335000EA6EEFCFADF10DD0AD512B080AE1AC51C3
:10336000AC2B036AA725E96EA8510320EA6EEFCFC4
:10337000ADF1AD512F08D8B090D0AD513908D8A0DB
:103380008CD0AD51300821E1036AAC51A725E96E1C
:10339000A8510320EA6EEF5078080AE0036AAC51A6
:1033A000A725E96EA8510320EA6EEF5058080DE1F9
:1033B000100EAB6FAC2BAC51AC2B036AA725E96E9A
:1033C000A8510320EA6EEFCFADF1AB510A081DE121
:1033D000AD512F0819E2AD51390816E30A0EAE6F50
:1033E000A9C1AFF100016AD7300E0101AD5D012422
:1033F000A96FAC51AC2B036AA725E96EA851032035
:10340000EA6EEFCFADF1E4D748D0AB51100845E1FB
:10341000AD51600806E2AD517A0803E3AD51DF0B10
:1034200001D0AD51AD6FAD512F0803E2AD51390858
:1034300006E2AD51400831E2AD5146082EE3AD51F0
:103440002F080CE2AD51390809E3A939AE6FF00E2F
:10345000AE17300EAD5DAE25A96F09D0A939AE6F9C
:10346000F00EAE17410EAD5D0A0FAE25A96FAC513F
:10347000AC2B036AA725E96EA8510320EA6EEFCFB3
:10348000ADF1AD51600806E2AD517A0803E3AD51EC
:10349000DF0B01D0AD51AD6FC6D7AA2D04D0AB5113
:1034A0000A0801E1A96DA9C101F00001000C0101A8
:1034B000A531A96FA933A9331F0EA917A551070B71
:1034C000AA6FA651020816E1036AA951730F016E93
:1034D000010E032201C0E9FF03C0EAFF010E006EE6
:1034E000AA51016E04E0D8900036012EFCD700509E
:1034F000EF1244D0036AA951730F016E010E03222B
:1035000001C0E9FF03C0EAFF010E006EAA51016E7F
:1035100004E0D8900036012EFCD70050FF0AEF16C9
:10352000A65317E1036AA951750F016E010E03221C
:1035300001C0E9FF03C0EAFF010E006EAA51016E4F
:1035400004E0D8900036012EFCD70050FF0AEF1699
:1035500015D0036AA951750F016E010E032201C037
:10356000E9FF03C0EAFF010E006EAA51016E04E0FC
:10357000D8900036012EFCD70050EF129388020E2F
:10358000006E002EFED7938A020E006E002EFED72C
:103590008A989398020E006E002EFED78A9A939A0C
:1035A0004E0EAC6F000158DD060E0101A925AB6F70
:1035B000AC6F000151DD036A0101A951730FE96E7F
:1035C000010E0320EA6EEFCFABF1ABC1ACF100010D
:1035D00043DD93980000938A81AAFED7020E006E05
:1035E000002EFED700D000009388020E006E002E41
:1035F000FED79388020E006E002EFED7938A020E2D
:10360000006E002EFED78A989398020E006E002E50
:10361000FED78A9A939A4E0E0101AC6F00011CDD11
:10362000020E0101A925AB6FAC6F000115DD036A25
:103630000101A951750FE96E010E0320EA6EEFCF6B
:10364000ABF1ABC1ACF1000107DD93980000938AA8
:1036500081AAFED7020E006E002EFED700D0000019
:103660009388020E006E002EFED7000C0101A16BA4
:10367000036AA1519E25E96E9F510320EA6EEF5027
:1036800052084FE1A12B036AA1519E25E96E9F517B
:103690000320EA6E300EEF5CA26F020EA127036AD0
:1036A000A1519E25E96E9F510320EA6E300EEF5C1A
:1036B000A36FA12B036AA1519E25E96E9F510320A0
:1036C000EA6EEF502F0818E2036AA1519E25E96EB9
:1036D0009F510320EA6EEF5039080EE3A3510A0D03
:1036E000F3CFA3F1036AA1519E25E96E9F510320F8
:1036F000EA6E300EEF5CA327A0530AE0A3C1A5F148
:10370000A2C1A6F1010EA76F000197DD08D001014B
:10371000A3C1A5F1A2C1A6F1A76B00018EDD49D01E
:103720000101036AA1519E25E96E9F510320EA6EB3
:10373000EF50530821E1020EA127A1519E25A56F4C
:10374000000E9F21A66FA86FA5C1A7F10001DEDDC5
:1037500001C0A4F10101A05307E0A4C1A5F1A66B2B
:103760000001A5DE07D00101A4C1A5F1020EA66FDC
:1037700000019DDE1ED00101036AA1519E25E96E64
:103780009F510320EA6EEF50500808E1A05303E078
:1037900094928B8202D094928B920CD00001AA5307
:1037A00005E0980EF66E2B0EF76E23DD000E016E0F
:1037B00003D00101010E016E0001000C91C103F064
:1037C000010190C1E9FF91C1EAFF9251EF5C12E063
:1037D00091C103F090C1E9FF91C1EAFFEF5204E10A
:1037E000000E016E026E0AD0902BD8B4912B00010E
:1037F000E5D7010190C101F091C102F00001000C78
:10380000010199519B19800B9D6F99AF05D0981FAD
:10381000991F982BD8B4992B9BAF05D09A1F9B1F4B
:103820009A2BD8B49B2B98519A03F3CF01F0F4CF85
:1038300000F09B03F350002699519A03F3500020A7
:10384000026E9DAF05D0011E021E012AD8B4022AC5
:1038500000019EEF1CF00101966B946B0A0E956FB0
:10386000936B926B9051911104E1000E016E026E08
:10387000E8D09651962B036A9025E96E915103206A
:10388000EA6EEFCF97F197512D080DE1010E946F7D
:103890009651962B036A9025E96E91510320EA6EAA
:1038A000EFCF97F10DD097512B080AE19651962B47
:1038B000036A9025E96E91510320EA6EEFCF97F1EC
:1038C00097512F08D8B0AFD097513908D8A0ABD0B6
:1038D0009751300821E1036A96519025E96E915184
:1038E0000320EA6EEF5078080AE0036A96519025AB
:1038F000E96E91510320EA6EEF5058080DE1100E69
:10390000956F962B9651962B036A9025E96E9151EF
:103910000320EA6EEFCF97F195510A0823E1975102
:103920002F081FE2975139081CE3996B0A0E986F14
:1039300093C19BF192C19AF1000162D7300E01014F
:10394000975D0124926F000E0220936F9651962B83
:10395000036A9025E96E91510320EA6EEFCF97F14B
:10396000DED761D0955110085EE19751600806E2FC
:1039700097517A0803E39751DF0B01D09751976F66
:1039800097512F0803E29751390806E297514008F2
:103990004AE29751460847E397512F0819E2975199
:1039A000390816E39235986F9335996F98379937A0
:1039B0009837993798379937F00E9817300E975DEA
:1039C0009825016E000E992101C092F1936F16D0D7
:1039D0009235986F9335996F98379937983799370B
:1039E00098379937F00E9817410E975D0A0F982572
:1039F000016E000E992101C092F1936F9651962BA2
:103A0000036A9025E96E91510320EA6EEF50976F9B
:103A1000600806E297517A0803E39751DF0B01D063
:103A20009751976FADD795510A0807E1942D05D0AE
:103A3000921F931F922BD8B4932B92C101F093C184
:103A400002F00001000CEACFA6F1E9CFA5F10101D7
:103A50009FAF08D0A58FA5A9A52B9E1F9F1F9E2BAA
:103A6000D8B49F2B9F39F009A16FA127E20FA26F55
:103A7000320FA46F9F510F0BA227A227A427E90F93
:103A8000A36FA327A3279E390F0BA327A427A33730
:103A9000A437A41FA4379E510F0BA427A137070EEC
:103AA000A06F0A0EA307A427FDE3A207A327FDE347
:103AB000A107A227FDE3A007A127FDE3010EEA6EFF
:103AC000A00EE96E070EA515A59DE906A51507E14F
:103AD000A5B9E92AA5B903D0200E006E1CD0E926AD
:103AE000A40EE95CD8B4A58DEF50006E08E1A5BD29
:103AF00006D0A5B91ED0A5B702D0200E0BD0A5AF19
:103B000006D02D0E006EED50A59DA59F04D0A58773
:103B1000A599300E0026EACF9FF1E9CF9EF100C0B3
:103B2000A7F10001DBEC18F09FC1EAFF9EC1E9FF9D
:103B30000101EE50A5ADD4D70001000CAA533FE01F
:103B4000C00EF66E2B0EF76E140E01019E6F000173
:103B500009EC19F0100EE96E93C19FF192C19EF12C
:103B600072DFD70EF66E2B0EF76E0A0E01019E6FF6
:103B7000000109EC19F0100EE96E95C19FF194C196
:103B80009EF161DFE40EF66E2B0EF76E0B0E010157
:103B90009E6F000109EC19F0100EE96E97C19FF1BC
:103BA00096C19EF150DF0D0E0101A76F0001DBEC05
:103BB00018F00A0E0101A76F0001DBEC18F00101FB
:103BC000996B986B9951935DD8A077D004E192518D
:103BD000985DD8B072D095C19BF194C19AF197C10C
:103BE0009DF196C19CF191C19FF190C19EF1010E92
:103BF000A06F00013BDD94948B9401019B51000860
:103C00000BE2FF0E9F6F000133EC17F0FF0E010176
:103C10009A5F000E9B5BF2D79BC19EF19E2B9E0785
:103C2000D8B407D0FF0E9F6F000133EC17F00101ED
:103C3000F6D79AC19FF1000133EC17F091C19FF1C3
:103C400090C19EF10101A06B000110DD94948B8462
:103C5000010E0101925D006E000E9359036E00C0CB
:103C600001F09951035C25E303E10150985D21E2E5
:103C70009D5100080BE2FF0E9F6F000133EC17F01F
:103C8000FF0E01019C5F000E9D5BF2D79DC19EF16E
:103C90009E2B9E07D8B407D0FF0E9F6F000133EC18
:103CA00017F00101F6D79CC19FF1000133EC17F02A
:103CB0000101982BD8B4992B85D794948B94010E3D
:103CC000016E0001EAEF1EF001018B6B010E8A6F9D
:103CD0008D6B500E8C6F010E8F6F2C0E8E6F81C10D
:103CE00083F180C182F183C191F182C190F1926F21
:103CF000000164DD02C085F101C084F1010184513D
:103D0000851156E084C1E9FF85C1EAFFEF6A842B83
:103D1000D8B4852B85C191F184C190F12C0E926F9E
:103D200000014CDD02C087F101C086F1010186511E
:103D3000871134E086C1E9FF87C1EAFFEF6A862B6D
:103D4000D8B4872B87C191F186C190F12C0E926F68
:103D5000000134DD02C089F101C088F10101885100
:103D6000891112E088C1E9FF89C1EAFFEF6A882B57
:103D7000D8B4892B89C191F188C190F100016BDD24
:103D800002C08FF101C08EF187C191F186C190F11F
:103D9000000161DD02C08DF101C08CF185C191F19E
:103DA00084C190F1000157DD02C08BF101C08AF19E
:103DB00083C191F182C190F18BC193F18AC192F1DB
:103DC0008DC195F18CC194F18FC197F18EC196F19F
:103DD0000001B4D60150D5EF31F001019851016ACC
:103DE000975D03E297C100F00CD0006A080E996F4E
:103DF000973700369851005CD8B0006E0136992F85
:103E0000F7D70001000C200E010192A9300E936F2C
:103E100091C100F091AF07D0001E002A00C091F1BF
:103E20002D0E936F928F015091C197F1640E986F90
:103E30000001D3DF00C091F1300E01240101946F25
:103E400091C197F10A0E986F0001C7DF300E002470
:103E50000101966F300E0124956F93C100F092A777
:103E600002D092AF929592B90BD092AF22D092B578
:103E700020D000C094F192B31CD000C095F119D0AD
:103E8000300E945D16E100C094F1200E936F92A75E
:103E900004D09295928392AF9293300E955D09E192
:103EA00000C095F1200E946F92A7F7D7929392AF2E
:103EB000929192A506D093C1A7F10001DBEC18F016
:103EC000010192A306D094C1A7F10001DBEC18F028
:103ED000010192A105D095C1A7F10001DBEC18F01A
:103EE00096C1A7F10001DBEC18F0000C010191BFB5
:103EF00012D00F0E006E903900160A0E005C03E21D
:103F0000300E002602D09151002600C0A7F100011A
:103F1000DBEC18F001010F0E90170A0E905D02E223
:103F2000300E02D0919F9151902790C1A7F10001CE
:103F3000DBEC18F0000C010E0101816F036A815166
:103F4000730FE96E010E0320EA6EEF50030BEF6E64
:103F5000036A8151750FE96E010E0320EA6EEF507E
:103F6000030BEF6E036A8151750FE96E010E03209A
:103F7000EA6E8035006E0036FC0E00160050FC0B19
:103F8000EF10EF6E0001AA536EE0036A0101815148
:103F9000750FE96E010E0320EA6EEFCF82F15C0E21
:103FA000F66E2B0EF76E100E9E6F000109EC19F0E5
:103FB00081C191F11F0E0101926F000124DF6E0E8D
:103FC000F66E2B0EF76E040E01019E6F000109ECD8
:103FD00019F082C190F1370E0101916F000186DF67
:103FE0000D0E0101A76F0001DBEC18F00A0E0101B4
:103FF000A76F0001DBEC18F0036A01018151730F18
:10400000E96E010E0320EA6EEFCF82F17A0EF66EB2
:104010002B0EF76E110E9E6F000109EC19F081C195
:1040200091F11F0E0101926F0001EDDE8D0EF66E13
:104030002B0EF76E040E01019E6F000109EC19F0C2
:1040400082C190F1370E0101916F00014FDF0D0E1B
:104050000101A76F0001DBEC18F00A0E0101A76F48
:104060000001DBEC18F09388020E006E002EFED7E4
:10407000938A020E006E002EFED78A989398020E45
:10408000006E002EFED78A9A939A4E0E0101AC6FF5
:1040900000012CEC18F0060E01018125826FAC6F37
:1040A00000012CEC18F0036A01018151730FE96ED5
:1040B000010E0320EA6EEFCF82F182C1ACF1000164
:1040C0002CEC18F093980000938A81AAFED7020E78
:1040D000006E002EFED700D000009388020E006E06
:1040E000002EFED7036A01018151750F016E010E8A
:1040F000032201C0E9FF03C0EAFFEF9E9388020E8E
:10410000006E002EFED7938A020E006E002EFED7A0
:104110008A989398020E006E002EFED78A9A939A80
:104120004E0EAC6F00012CEC18F0020E010181253F
:10413000826FAC6F00012CEC18F0036A0101815111
:10414000750FE96E010E0320EA6EEFCF82F182C196
:10415000ACF100012CEC18F093980000938A81AA2E
:10416000FED7020E006E002EFED700D0000093880E
:10417000020E006E002EFED7010E01019F6F00019E
:1041800033EC17F0036A01018151750F016E010EC6
:10419000032201C0E9FF03C0EAFFEF8E9388020EFD
:1041A000006E002EFED7938A020E006E002EFED700
:1041B0008A989398020E006E002EFED78A9A939AE0
:1041C0004E0EAC6F00012CEC18F0020E010181259F
:1041D000826FAC6F00012CEC18F0036A0101815171
:1041E000750FE96E010E0320EA6EEFCF82F182C1F6
:1041F000ACF100012CEC18F093980000938A81AA8E
:10420000FED7020E006E002EFED700D0000093886D
:10421000020E006E002EFED7010E01019F6F0001FD
:1042200033EC17F0036A01018151750F016E010E25
:10423000032201C0E9FF03C0EAFFEF9E9388020E4C
:10424000006E002EFED7938A020E006E002EFED75F
:104250008A989398020E006E002EFED78A9A939A3F
:104260004E0EAC6F00012CEC18F0020E01018125FE
:10427000826FAC6F00012CEC18F0036A01018151D0
:10428000750FE96E010E0320EA6EEFCF82F182C155
:10429000ACF100012CEC18F093980000938A81AAED
:1042A000FED7020E006E002EFED700D000009388CD
:1042B000020E006E002EFED7010E01019F6F00015D
:1042C00033EC17F0036A01018151730FE96E010E9F
:1042D0000320EA6EEF50FC09EF6E9388020E006E29
:1042E000002EFED7938A020E006E002EFED78A980B
:1042F0009398020E006E002EFED78A9A939A4E0E65
:10430000AC6F00012CEC18F0060E01018125826FC4
:10431000AC6F00012CEC18F0036A01018151730F9E
:10432000E96E010E0320EA6EEFCF82F182C1ACF19B
:1043300000012CEC18F093980000938A81AAFED714
:10434000020E006E002EFED700D000009388020EF1
:10435000006E002EFED7F1EF31F0020E0101812533
:10436000846F000E8221856F916F84C190F10001EE
:104370002BEC1CF001C083F1010181C1E9FF82C176
:10438000EAFFEF505208D8A4C3D0010E8125E96E90
:10439000000E8221EA6EEF5042081DE18351060AA9
:1043A000000103E0010A09E011D00101805302E19C
:1043B0008A9C01D08A8C939C0DD00101805302E12C
:1043C0008A9E01D08A8E939E05D00001000E016E58
:1043D000C0D001019CD0010E8125E96E000E822122
:1043E000EA6EEF50430831E18351000A000107E013
:1043F000010A0DE0070A13E0010A19E021D00101CA
:10440000805302E18B9001D08B8094901DD00101EC
:10441000805302E18B9201D08B82949215D00101DE
:10442000805302E18B9C01D08B8C949C0DD00101B8
:10443000805302E18B9E01D08B8E949E05D00001AB
:10444000000E016E86D0010162D0010E8125E96E59
:10445000000E8221EA6EEF504408D8A458D0835150
:10446000000A00010FE0010A15E0030A1BE0010A3F
:1044700021E0070A27E0010A2DE0030A33E0010AE0
:1044800039E041D00101805302E18C9001D08C8051
:1044900095903DD00101805302E18C9201D08C8235
:1044A000959235D00101805302E18C9401D08C8427
:1044B00095942DD00101805302E18C9601D08C8619
:1044C000959625D00101805302E18C9801D08C880B
:1044D00095981DD00101805302E18C9A01D08C8AFD
:1044E000959A15D00101805302E18C9C01D08C8CEF
:1044F000959C0DD00101805302E18C9E01D08C8EE1
:10450000959E05D00001000E016E23D001011FD041
:1045100081C1E9FF82C1EAFFEF50530818E1010EA3
:104520008125E96E000E8221EA6EEF5057080FE1F7
:1045300083510F0804E2000E016E00010AD083C10E
:10454000A5F180C1A6F1000157EC1AF00101010E9E
:10455000016E0001000C080E0101886F00C089F196
:104560009388020E006E002EFED7938A81AAFED792
:1045700081B8D88081A8D8900136020E006E002E36
:10458000FED7939A8A9A882FEBD79388020E006EF3
:10459000002EFED78A988951D8A493980000938A58
:1045A00081AAFED7020E006E002EFED78A9A939A39
:1045B000020E006E002EFED78A9893980001000C20
:1045C0000101846B836B866B9388020E006E002E54
:1045D000FED7938A020E006E002EFED78A9893981B
:1045E000020E006E002EFED78A9A939A4E0EAC6F82
:1045F00000012CEC18F0060E0101AC6F00012CEC50
:1046000018F073C1ACF12CEC18F074C1ACF12CECC7
:1046100018F093980000938A81AAFED7020E006ECC
:10462000002EFED700D000009388020E006E002EF0
:10463000FED79388020E006E002EFED7938A020EDC
:10464000006E002EFED78A989398020E006E002E00
:10465000FED78A9A939A4E0E0101AC6F00012CECA2
:1046600018F00101AC6B00012CEC18F09388020EDD
:10467000006E002EFED7938A020E006E002EFED72B
:1046800081AAFED78A989398020E006E002EFED75C
:104690008A9A939A4F0E0101AC6F00012CEC18F02E
:1046A000010E006E58DF01C085F1010E006E53DF70
:1046B00001C086F193980000938A81AAFED7020E6A
:1046C000006E002EFED700D000009388020E006E10
:1046D000002EFED70101846B86C183F183C184F172
:1046E000836B8551831383C101F084C102F0000103
:1046F000B6EF25F00101846B8331856F85338533F7
:104700001F0E85178351070B866F036A8551730F40
:10471000016E010E032201C0E9FF03C0EAFF010E92
:10472000006E8651016E04E0D8900036012EFCD751
:104730000050EF129388020E006E002EFED7938A6F
:10474000020E006E002EFED78A989398020E006E1D
:10475000002EFED78A9A939A4E0EAC6F00012CEC75
:1047600018F0060E01018525876FAC6F00012CEC57
:1047700018F0036A01018551730FE96E010E0320E1
:10478000EA6EEFCF87F187C1ACF100012CEC18F095
:1047900093980000938A81AAFED7020E006E002E25
:1047A000FED700D000009388020E006E002EFED7C8
:1047B0009388020E006E002EFED7938A020E006EC2
:1047C000002EFED78A989398020E006E002EFED718
:1047D0008A9A939A4E0E0101AC6F00012CEC18F0EE
:1047E00085C1ACF12CEC18F09388020E006E002EFF
:1047F000FED7938A020E006E002EFED781AAFED746
:104800008A989398020E006E002EFED78A9A939A89
:104810004F0E0101AC6F00012CEC18F0010E006E80
:104820009ADE01C084F193980000938A81AAFED792
:10483000020E006E002EFED700D000009388020EFC
:10484000006E002EFED784C100F001018651016E7A
:1048500004E0D8900032012EFCD7000E00B0010E0B
:10486000016E0001C8EF25F0020E01018025836F63
:10487000000E8121846F916F83C190F100012BECB8
:104880001CF001C082F1010180C1E9FF81C1EAFF92
:10489000EF505208D8A44FD1010E8025E96E000ECA
:1048A0008121EA6EEF504208D8A46AD08251000AF2
:1048B00000010FE0010A17E0030A1FE0010A27E0E8
:1048C000070A2FE0010A37E0030A3FE0010A47E048
:1048D00050D09380000E81B0010E036A016E03C0B8
:1048E00002F060D14BD09382000E81B2010E036AB8
:1048F000016E03C002F056D141D09384000E81B402
:10490000010E036A016E03C002F04CD137D09386CA
:10491000000E81B6010E036A016E03C002F042D19F
:104920002DD09388000E81B8010E036A016E03C07A
:1049300002F038D123D0938A000E81BA010E036AA7
:10494000016E03C002F02ED119D0938C000E81BCF1
:10495000010E036A016E03C002F024D10FD0938EC2
:10496000000E81BE010E036A016E03C002F01AD16F
:1049700005D0020E016E000E026E14D1DAD00101D4
:10498000010E8025E96E000E8121EA6EEF5043088A
:104990005EE18251000A00010DE0010A15E0030A00
:1049A0001DE0060A25E0010A2DE0030A35E0010AB0
:1049B0003DE046D09480000E82B0010E036A016E85
:1049C00003C002F0EFD041D09482000E82B2010EFB
:1049D000036A016E03C002F0E5D037D09484000E64
:1049E00082B4010E036A016E03C002F0DBD02DD049
:1049F0009488000E82B8010E036A016E03C002F0B3
:104A0000D1D023D0948A000E82BA010E036A016EBF
:104A100003C002F0C7D019D0948C000E82BC010EE6
:104A2000036A016E03C002F0BDD00FD0948E000E59
:104A300082BE010E036A016E03C002F0B3D005D03E
:104A4000020E016E000E026EADD073D00101010E98
:104A50008025E96E000E8121EA6EEF504408D8A44B
:104A600069D08251000A00010FE0010A17E0030A31
:104A70001FE0010A27E0070A2FE0010A37E0030AD6
:104A80003FE0010A47E050D09580000E83B0010E50
:104A9000036A016E03C002F085D04BD09582000EF0
:104AA00083B2010E036A016E03C002F07BD041D0D5
:104AB0009584000E83B4010E036A016E03C002F0F8
:104AC00071D037D09586000E83B6010E036A016E51
:104AD00003C002F067D02DD09588000E83B8010E78
:104AE000036A016E03C002F05DD023D0958A000EE8
:104AF00083BA010E036A016E03C002F053D019D0CD
:104B0000958C000E83BC010E036A016E03C002F097
:104B100049D00FD0958E000E83BE010E036A016E40
:104B200003C002F03FD005D0020E016E000E026EEF
:104B300039D0010133D080C1E9FF81C1EAFFEF50D4
:104B400053082CE1010E8025E96E000E8121EA6EEA
:104B5000EF50570823E1020E8025E96E000E8121F7
:104B6000EA6EEF502A0806E100012AD502501AD059
:104B700013D0010182510F0807E2020E016E000EF0
:104B8000026E00010FD008D082C183F10001B2D5BE
:104B9000036A03C002F006D000D00101020E016ECC
:104BA000000E026E0001000C949E8B9E070E006E9C
:104BB000002EFED700D0948C070E006E002EFED77C
:104BC00000D0949E8B8E070E006E002EFED700D074
:104BD000949C8B9C070E006E002EFED700D0949EF6
:104BE0008B9E070E006E002EFED700D0949E8B8EFB
:104BF000070E006E002EFED700D0948C070E006EBC
:104C0000002EFED700D0949E8B9EACEF26F0800E37
:104C10000101876F875318E08751861502E0948C55
:104C200002D0949C8B9C070E006E002EFED700D005
:104C3000949E8B8E130E006E002EFED700D0949E95
:104C40008B9ED8908733E6D7948C070E006E002E8B
:104C5000FED700D0948C876B82BC872B949E8B8E62
:104C6000070E006E002EFED700D0949E8B9E000192
:104C7000000C0101876B886B010E866F8651080856
:104C800017E3949E8B8E070E006E002EFED700D089
:104C9000948C82BC02D0D89001D0D8808737949E63
:104CA0008B9E070E006E002EFED700D0862BE6D717
:104CB000949C8B9C070E006E002EFED700D0949E15
:104CC0008B8E070E006E002EFED700D0949E8B9E1A
:104CD000948C070E006E002EFED700D0010E866F5A
:104CE0008651080817E3949E8B8E070E006E002EE7
:104CF000FED700D0948C82BC02D0D89001D0D8804E
:104D00008837949E8B9E070E006E002EFED700D033
:104D1000862BE6D7949C8B8C070E006E002EFED758
:104D200000D0949E8B8E070E006E002EFED700D012
:104D3000949E8B9E948C070E006E002EFED700D0A2
:104D400087C18AF188C189F189C101F08AC102F065
:104D50000001D5EF26F028D701018251000A000199
:104D600003E0010A07E00CD0030E0101866F000189
:104D70004EDF07D0050E0101866F000148DF01D02C
:104D800000D00101836B835195080DE3020E9F6FE4
:104D9000000133EC17F0948C82BC02D0010103D0E7
:104DA0000101832BF0D7000164D702C085F101C057
:104DB00084F1010184C101F085C102F00001000C01
:104DC0008E0E006E83C101F082C102F0036A0152AF
:104DD00009E102C001F0026A080E005E015202E120
:104DE000006A08D0D89001BE04D002360136000611
:104DF000F9D7019E000C01018A51D8B4A5D0966F55
:104E00008E51D8B4A1D0965F05E37F0E9627D8B017
:104E10009BD006D0810E965FD8A096D0D8B494D0FF
:104E200096C100F0016A026A036A956B8BC194F126
:104E3000948F8CC193F18DC192F1190E966F91519F
:104E4000925F0DE2010E935F0AE2945F08E2955FC4
:104E500006E2952B942B932B9151922728D09051B9
:104E6000935F12E2010E945F0FE2955F0DE2952BC6
:104E7000942B905193279151922719E3932B17E18B
:104E8000942B15E1952B13D08F518009945F0EE27E
:104E9000010E955F0BE2952B8F518009942790515D
:104EA0009327E9E3942BE7E1952BE5D70380962F31
:104EB00001D00BD0D8909237933794379537D8904C
:104EC0000336023601369737BAD797A106D0D89065
:104ED000013202320332973302D0000635E097BF29
:104EE0001ED0D89092379337943795379151925F6F
:104EF00007E2010E935F04E2945F02E2955F1AE31A
:104F00009051935F05E2010E945F02E2955F12E318
:104F10008F518009945F03E2010E955F0BE3032A32
:104F200009E1022A07E1012A05E1002A0DE0013228
:104F3000023203328BC196F18F51961B96AF02D08D
:104F4000018E06D0019E04D0006A016A026A036ADB
:104F50000001000C800ED8A202D001018B1B0101C0
:104F6000906B916B87C18FF18B518F1B8651D8B499
:104F7000DFD08E6F006E8A51D8B4E3D08E5FD8B484
:104F800083D03EE38BC194F1948F8CC193F18DC19A
:104F900092F1916BD89094339333923391338E2F57
:104FA000F8D78FAF03D09081E0D090918E91908907
:104FB000010EEA6E890EE96EEBD090998FBF0AD090
:104FC0008EA113D09433933392339133002AD8B403
:104FD000C7D00BD094BF0CD0D8909137923793376D
:104FE00094370006D8B4BCD0F5D7908D6DD0909D85
:104FF00087C18FF187AF02D0948FABD0949FA9D097
:105000008AC18EF18AC100F086518E5F87C194F10A
:10501000948F88C193F189C192F1916BD8909433A8
:105020009333923391338E2FF8D78FAF03D0908381
:105030009CD090938E91908B010EEA6E8D0EE96E4E
:10504000A7D0909B8FBF0AD08EA113D094339333F7
:1050500092339133002AD8B483D00BD094BF0CD0B4
:10506000D89091379237933794370006D8B478D0D8
:10507000F5D7908F29D0909F8BC18FF18BAF02D045
:10508000948F67D0949F65D08BC194F1948F8CC11D
:1050900093F18DC192F18FAF04D0949F908565D02C
:1050A0009095916B8E91010EEA6E890EE96E70D02B
:1050B0008FBF1CD087C18FF18EA106D0943393335C
:1050C00092339133002A4CE091AF0BD0922B09E13F
:1050D000932B07E1942B05E1943393339233002A09
:1050E0003FE090BD84D790BFC6D71CD0800E941BE4
:1050F00094AF04D03AD08BC18FF10AD087C18FF121
:10510000945306E1935304E1925302E1006A21D0E3
:1051100094BF08D0D8909137923793379437002EA8
:10512000F7D71ED08FAF02D0948F13D0949F11D099
:105130008AC100F08BC194F18CC193F18DC192F1C1
:1051400008D086C100F087C194F188C193F189C16C
:1051500092F194C101F093C102F092C103F034D0F6
:10516000006A016A026A036A2FD0916B921F931F33
:10517000941F911F912B05E1922B03E1932B01E1E9
:10518000942B90B112D790B354D790B589D7B3D799
:10519000EF50922705E3932B03E1942BD8B48E8133
:1051A000ED52EF50932703E3942BD8B48E81ED5248
:1051B000EF50EFBE01D0800A9427D8B08E8190B90D
:1051C000FCD690BB3ED774D70001000C01018D5175
:1051D000D8B471D0006E9151D8B46DD0002604E3DC
:1051E000810E002668E204D07F0E005E64E363E077
:1051F0008EC195F19251951B8E8F928F9051940391
:10520000F4CF97F18F519303F4CF03F0F3CF96F1DE
:105210009403F3509727F4509623000E03229051E5
:105220009303F3509727F4509623000E026A03224B
:1052300002228E519403F3509627F4500322000E5D
:1052400002228E519303F3500326F4500222000EE3
:10525000016A012290519203F3509627F4500322E1
:10526000000E022201228F519203F3500326F450C4
:105270000222000E01228E519203F3500226F450B6
:105280000122002A01BE05D09637033602360136C8
:105290000006000E96AF0AD0032A02220122015016
:1052A00005E1025003E1035001E1002A95BF018EA0
:1052B00095AF019E04D0006A016A026A036A000188
:1052C000000C0101826B000146DD02C081F101C0CA
:1052D00080F181C183F180C182F172DD03C06AF186
:1052E00002C069F101C068F100C067F16AC18DF1C7
:1052F00069C18CF168C18BF167C18AF10101916BC1
:10530000906B480E8F6F850E8E6F000174DD00C0AC
:1053100082F101C083F102C084F103C085F1D8821B
:1053200003C089F102C088F101C087F100C086F195
:1053300001018D6B8C6B200E8B6F840E8A6F0001C8
:1053400009DE03C06AF102C069F101C068F100C062
:1053500067F1010E0101826F0001FDDC02C081F1E5
:1053600001C080F181C183F180C182F129DD03C0D8
:105370006EF102C06DF101C06CF100C06BF1D8821A
:105380006AC189F169C188F168C187F167C186F195
:1053900001018D6B8C6B480E8B6F830E8A6F000141
:1053A000D9DD00C082F101C083F102C084F103C0E5
:1053B00085F1AC0E0101906FC50E8F6F270E8E6FB9
:1053C000710E8D6F6EC194F16DC193F16CC192F14C
:1053D0006BC191F10001FADED8920A0E0101896FCA
:1053E000D70E886F230E876F780E866F03C08DF1FE
:1053F00002C08CF101C08BF100C08AF10001AADD6E
:1054000085C190F184C18FF183C18EF182C18DF18C
:1054100003C094F102C093F101C092F100C091F178
:10542000D5DE03C072F102C071F101C070F100C09D
:105430006FF1540E0101906FE30E8F6F250E8E6F8A
:105440007A0E8D6F6EC194F16DC193F16CC192F1C2
:105450006BC191F10001BADED8920101896B886BB2
:10546000800E876F810E866F03C08DF102C08CF1B4
:1054700001C08BF100C08AF100016CDD00C082F137
:1054800001C083F102C084F103C085F1330E010134
:10549000906F8F6F8E6F800E8D6F6EC194F16DC1A6
:1054A00093F16CC192F16BC191F100018FDE00C0EC
:1054B00086F101C087F102C088F103C089F103C001
:1054C00090F102C08FF101C08EF100C08DF16EC16C
:1054D00094F16DC193F16CC192F16BC191F176DEE3
:1054E00000C086F101C087F102C088F103C089F1D4
:1054F00003C08DF102C08CF101C08BF100C08AF1B4
:105500000101916B240E906F740E8F6F920E8E6F4F
:10551000000171DCD88285C189F184C188F183C121
:1055200087F182C186F103C08DF102C08CF101C008
:105530008BF100C08AF10EDD03C06EF102C06DF187
:1055400001C06CF100C06BF1D8926EC189F16DC1E0
:1055500088F16CC187F16BC186F172C18DF171C1A7
:105560008CF170C18BF16FC18AF1F4DC03C06EF174
:1055700002C06DF101C06CF100C06BF1A8EF32F018
:1055800001018D51B6088D6F036A8EC191F18E8F26
:10559000D8908E338F33903303320232013200328F
:1055A0008D2FF6D791AF0BD0001E011E021E031ED9
:1055B000002AD8B4012AD8B4022AD8B4032A000198
:1055C00057EF2BF0D8B204D0010EEA6E950EE96EBB
:1055D000006A016A026A036A0101956B966B976B18
:1055E000986B94519311921191112CE0200E996FA8
:1055F000D8908D378E378F379037953796379737C6
:1056000098379451985D08E19351975D05E1925167
:10561000965D02E19151955D0FE39151955F925135
:10562000D8A0923D965F9351D8A0933D975F945137
:10563000D8A0943D985FD8800036013602360336F4
:10564000992FD6D795C1EFFF96C1ECFF97C1ECFF1C
:1056500098C1ECFF0001000CE9500101856F8451F5
:10566000876F1BE083C190F182C18FF181C18EF100
:1056700080C18DF1946B936B200E926F820E916FAF
:105680000001A4DD03C083F102C082F101C081F1F9
:1056900000C080F10101872FE5D783C190F182C15D
:1056A0008FF181C18EF180C18DF1000169D703C0F6
:1056B00083F102C082F101C081F100C080F10101DB
:1056C00083AF0DD08507858B801F811F821F831FAD
:1056D000802BD8B4812BD8B4822BD8B4832B3B0E2B
:1056E0008C6F9A0E8B6FCA0E8A6F896B0A0E876F4A
:1056F0008451D8B4852BD882010EEA6E800EE96EF3
:1057000083C190F182C18FF181C18EF180C18DF191
:105710008CC194F18BC193F18AC192F189C191F14D
:10572000000150DF0150005213E101018429875D1F
:10573000D8A402D000010CD085510DE00F0B875D7D
:1057400001E044E285BF42D085BD05D0200E37D0B0
:10575000200E0101851785AB0FD0859B8451D8A4FD
:1057600085070050856F2D0EA76F0001DBEC18F048
:1057700001018551006E856B8451875D0DE10050FC
:10578000856F2E0EA76F0001DBEC18F0010185512B
:10579000006E200E8517000E300E85AB10D0859B55
:1057A0008451D8A485070050856F2D0EA76F000186
:1057B000DBEC18F001018551006E856B300E002680
:1057C00000C0A7F10001DBEC18F00101D8928CC1F8
:1057D00090F18BC18FF18AC18EF189C18DF1946BEB
:1057E000936B926B0A0E916F0001ECDE03C08CF19B
:1057F00002C08BF101C08AF100C089F10101872F3D
:105800007AD70001000C020E01018025836F000E83
:105810008121846F916F83C190F100012BEC1CF00A
:1058200001C082F1010180C1E9FF81C1EAFFEF50AF
:105830005208D8A47FD0010E8025E96E000E812188
:10584000EA6EEF50410840E18251000A000109E090
:10585000010A0EE0030A13E0010A18E0070A1DE03E
:1058600023D0000E016EC250C30B0110C26E20D0B7
:10587000040E016EC250C30B0110C26E19D0080E87
:10588000016EC250C30B0110C26E12D00C0E016E1D
:10589000C250C30B0110C26E0BD0100E016EC2506D
:1058A000C30B0110C26E04D0000E016E026E45D013
:1058B000C282C2B2FED7C4CF03F0C3CF01F0C4CFBF
:1058C00002F03BD036D00101010E8025E96E000EBA
:1058D0008121EA6EEF5045082DE18251000A000156
:1058E00005E0010A0AE0030A0FE015D0140E016E6C
:1058F000C250C30B0110C26E12D0180E016EC250FE
:10590000C30B0110C26E0BD01C0E016EC250C30B34
:105910000110C26E04D0000E016E026E0ED0C28263
:10592000C2B2FED7C4CF03F0C3CF01F0C4CF02F0A0
:1059300004D00101000E016E026E0001EFEF32F0A3
:10594000EF5210E0EACF91F1E9CF90F1EFCFA7F15C
:10595000DBEC18F091C1EAFF90C1E9FFE92AD8B465
:10596000EA2AEED7000C01018A6B8B6B400E8C6F1C
:1059700080C1E9FF81C1EAFFEF505208D8A44FD19E
:10598000010E8025E96E000E8121EA6EEF50450878
:10599000D8A445D1020E8025E96E000E8121EA6E61
:1059A000EF504708D8A43BD1030E8F6F036A8F5185
:1059B0008025E96E81510320EA6E036A8F518025AC
:1059C000E96E81510320EA6EEF50390802E38F2B14
:1059D000EDD78F51030803E08F5105081FE2F60E43
:1059E000F66E2B0EF76E1E0E9E6F000109EC19F07D
:1059F00081C1EAFF80C1E9FFA3DF0D0E0101A76F9E
:105A00000001DBEC18F00A0E0101A76F0001DBECCE
:105A100018F0FF0E016E4FEF31F00101036A8F5154
:105A20008025E96E81510320EA6EEF503D0860E168
:105A3000036A8F518025E96E81510320EA6EEF6A77
:105A4000030E8025906F000E8121916FA86F90C189
:105A5000A7F1000186EC19F001C08DF101018F5111
:105A60008025906F000E8121916F010E9027000E0E
:105A7000912391C1A8F190C1A7F1000186EC19F022
:105A800001C08EF101018D513F0822E21A0EF66E1F
:105A90002C0EF76E200E9E6F000109EC19F08DC1DF
:105AA00090F1370E0101916F000176EC1FF00D0EA1
:105AB0000101A76F0001DBEC18F00A0E0101A76FCE
:105AC0000001DBEC18F0FF0E016E4FEF31F0010129
:105AD000036A8D515C25E96E5D510320EA6E8EC12B
:105AE000EFFF000E016E00014FEF31F096D0010183
:105AF000036A8F518025E96E81510320EA6EEF50D1
:105B00003F086EE1036A8F518025E96E81510320C1
:105B1000EA6EEF6A030E8025906F000E8121916F6F
:105B2000A86F90C1A7F1000186EC19F001C08DF1BA
:105B300001018D513F0821E2400EF66E2C0EF76EEA
:105B4000200E9E6F000109EC19F08DC190F1370E07
:105B50000101916F000176EC1FF00D0E0101A76F9E
:105B60000001DBEC18F00A0E0101A76F0001DBEC6D
:105B700018F0FF0E016E93D30101036A8D515C256D
:105B8000E96E5D510320EA6EEFCF90F14F0EA76FE3
:105B90000001DBEC18F06B0E0101A76F0001DBECDC
:105BA00018F0200E0101A76F0001DBEC18F090C186
:105BB00091F11F0E0101926F000103EC1FF00D0E19
:105BC0000101A76F0001DBEC18F00A0E0101A76FBD
:105BD0000001DBEC18F0010E016E61D31ED0010153
:105BE000660EF66E2C0EF76E150E9E6F000109EC18
:105BF00019F081C1EAFF80C1E9FFA2DE0D0E0101AB
:105C0000A76F0001DBEC18F00A0E0101A76F00017D
:105C1000DBEC18F0FF0E016E42D33ED3010180C1D0
:105C2000E9FF81C1EAFFEF504908D8A4F4D0010E82
:105C30008025E96E000E8121EA6EEF504E08D8A44F
:105C4000EAD0020E8025E96E000E8121EA6EEF5047
:105C50005408D8A4E0D0030E8025E96E000E8121FF
:105C6000EA6EEF50310867E1040E8025E96E000E00
:105C70008121EA6EEF503F0827E14F0EA76F000128
:105C8000DBEC18F06B0E0101A76F0001DBEC18F0E4
:105C9000200E0101A76F0001DBEC18F0010EEA6E87
:105CA000500EE96E4DDE0D0E0101A76F0001DBEC19
:105CB00018F00A0E0101A76F0001DBEC18F0010ECD
:105CC000016EEDD233D001018F6B050E8F25036A73
:105CD0008025E96E81510320EA6EEF50200825E20D
:105CE0008F51040822E3036A8F51500F016E010E99
:105CF000032203C091F1050E8F25036A8025E96E0A
:105D000081510320EA6EEFCF92F191C1EAFF01C009
:105D1000E9FF92C1EFFF8F2B036A8F51500FE96E9D
:105D2000010E0320EA6EEF6AD0D70001000E016E6B
:105D3000B6D26FD00101030E8025E96E000E8121DD
:105D4000EA6EEF50320866E1040E8025E96E000E1F
:105D50008121EA6EEF503F0827E14F0EA76F000147
:105D6000DBEC18F06B0E0101A76F0001DBEC18F003
:105D7000200E0101A76F0001DBEC18F0010EEA6EA6
:105D8000500EE96EDDDD0D0E0101A76F0001DBECA9
:105D900018F00A0E0101A76F0001DBEC18F0010EEC
:105DA000016E7DD233D001018F6B050E8F25036A02
:105DB0008025E96E81510320EA6EEF50200825E22C
:105DC0008F51040822E3036A8F51550F016E010EB3
:105DD000032203C091F1050E8F25036A8025E96E29
:105DE00081510320EA6EEFCF92F191C1EAFF01C029
:105DF000E9FF92C1EFFF8F2B036A8F51550FE96EB8
:105E0000010E0320EA6EEF6AD0D70001000E016E8A
:105E100046D2010142D280C1E9FF81C1EAFFEF50C1
:105E2000540834E1010E8025E96E000E8121EA6EEE
:105E3000EF5059082BE1020E8025E96E000E8121FA
:105E4000EA6EEF50500822E1030E8025E96E000E45
:105E50008121EA6EEF50450819E1050E8025E96EB3
:105E6000000E8121EA6EEF50310806E1010E5B6FF2
:105E70005D6F100E5C6F04D05B6B5D6BD00E5C6F62
:105E8000000E016E00010BD207D2010180C1E9FFB3
:105E900081C1EAFFEF5045086BE1010E8025E96EF4
:105EA000000E8121EA6EEF504E0862E1020E80255D
:105EB000E96E000E8121EA6EEF503F082AE14F0E95
:105EC000A76F0001DBEC18F06B0E0101A76F00015A
:105ED000DBEC18F0200E0101A76F0001DBEC18F0DD
:105EE0005AC191F11F0E0101926F000103EC1FF0E6
:105EF0000D0E0101A76F0001DBEC18F00A0E010185
:105F0000A76F0001DBEC18F0010E016EC8D12BD099
:105F10000101020E8025E96E000E8121EA6EEF502C
:105F20003D0820E1030E8025E96E000E8121EA6E16
:105F3000EF50310810E1C688C696C684C682C69066
:105F4000C59EC59093CF8FF18F510309936EC68A7A
:105F5000010E5A6F07D093CF8FF18F510309936EC3
:105F6000C69A5A6B0001000E016E99D195D10101BC
:105F700080C1E9FF81C1EAFFEF504408D8A404D1F1
:105F8000010E8025E96E000E8121EA6EEF50420875
:105F9000D8A4FAD0020E8025E96E000E8121EA6EA7
:105FA000EF504708D8A4F0D0605340E0800EF66E62
:105FB0002C0EF76E100E9E6F000109EC19F062C1F5
:105FC00090F1370E0101916F000176EC1FF0280E61
:105FD0000101A76F0001DBEC18F0300E0101A76F83
:105FE0000001DBEC18F0780E0101A76F0001DBEC7B
:105FF00018F063C190F1370E0101916F000176EC4A
:106000001FF0290E0101A76F0001DBEC18F00D0E47
:106010000101A76F0001DBEC18F00A0E0101A76F68
:106020000001DBEC18F00101606B08D0A00EF66EE9
:106030002C0EF76E0001F9EC18F00101615340E0FD
:10604000B20EF66E2C0EF76E110E9E6F000109EC6B
:1060500019F064C190F1370E0101916F000176ECE7
:106060001FF0280E0101A76F0001DBEC18F0300EC5
:106070000101A76F0001DBEC18F0780E0101A76F9A
:106080000001DBEC18F065C190F1370E0101916F52
:10609000000176EC1FF0290E0101A76F0001DBEC77
:1060A00018F00D0E0101A76F0001DBEC18F00A0ECD
:1060B0000101A76F0001DBEC18F00101616B08D052
:1060C000D20EF66E2C0EF76E0001F9EC18F00101FD
:1060D000320E9F6F000133EC17F0E60EF66E2C0EB9
:1060E000F76E140E01019E6F000109EC19F0F0C06B
:1060F00090F1370E0101916F000176EC1FF02C0E2C
:106100000101A76F0001DBEC18F0300E0101A76F51
:106110000001DBEC18F0780E0101A76F0001DBEC49
:1061200018F0F1C090F1370E0101916F000176EC8B
:106130001FF02C0E0101A76F0001DBEC18F0300EF0
:106140000101A76F0001DBEC18F0780E0101A76FC9
:106150000001DBEC18F0F2C090F1370E0101916FF5
:10616000000176EC1FF00D0E0101A76F0001DBECC2
:1061700018F00A0E0101A76F0001DBEC18F0000E09
:10618000016E8DD089D0010180C1E9FF81C1EAFF94
:1061900080C1E9FF81C1EAFFEF5039085FE381C1A7
:1061A00083F180C182F183C191F182C190F12C0E03
:1061B000926F0001DEEC1BF002C085F101C084F19A
:1061C00001018451851133E084C1E9FF85C1EAFFF3
:1061D000EF6A842BD8B4852B85C191F184C190F1ED
:1061E0002C0E926F0001DEEC1BF002C087F101C0A3
:1061F00086F101018651871111E086C1E9FF87C14F
:10620000EAFFEF6A862BD8B4872B87C1A8F186C135
:10621000A7F1000186EC19F001C08CF185C1A8F14D
:1062200084C1A7F1000186EC19F001C08BF183C194
:10623000A8F182C1A7F1000186EC19F001C08AF132
:106240008AC1F9F08BC1FBF08CC1FDF08AC125F148
:106250008BC126F18CC127F11FD00101100EF66E03
:106260002D0EF76E150E9E6F000109EC19F081C11D
:10627000EAFF80C1E9FFA0EC2CF00D0E0101A76F31
:106280000001DBEC18F00A0E0101A76F0001DBEC46
:1062900018F0FF0E016E03D00101000E016E000127
:1062A000D6EF33F0DAEF17F001C07BF101017B513B
:1062B00007080DE1000121EF18F067EF18F02A0E32
:1062C000F66E2D0EF76EF9EC18F09FD201017B539C
:1062D0001DE1340EF66E2D0EF76E040E9E6F00015A
:1062E00009EC19F0400EF66E2A0EF76EF9EC18F074
:1062F0000D0E0101A76F0001DBEC18F00A0E010181
:10630000A76F0001DBEC18F080D201017B2D1FD0BC
:10631000FF0EA96E010EA86EA69CA69EA684F25042
:10632000006EF29E0F01550EA76EAA0EA76EA682F2
:10633000A6B2FED7A6940050F2123E0EF66E2D0EB7
:10634000F76E0001F9EC18F0FF005FD201017B51FC
:1063500002080FE19F6B8C0E9E6FA06B000136EC64
:106360001BF0440EF66E2D0EF76EF9EC18F04DD2C0
:1063700001017B51030810E19F6B8C0E9E6F010E93
:10638000A06F000136EC1BF04E0EF66E2D0EF76E70
:10639000F9EC18F03AD201017B5104080EE1816B4F
:1063A0008C0E806F000164EF1EF0580EF66E2D0EFD
:1063B000F76EF9EC18F029D201017B5105083AE19A
:1063C000A86B8C0EA76F000186EC19F0036A01C060
:1063D0007CF1010103C07DF17CC180F100019BEFE4
:1063E0001FF0AA531FE0620EF66E2D0EF76E070E19
:1063F00001019E6F000109EC19F0100EE96E7DC1DC
:106400009FF17CC19EF123EC1DF00D0E0101A76FE1
:106410000001DBEC18F00A0E0101A76F0001DBECB4
:1064200018F006D0700EF66E2D0EF76EF9EC18F01F
:10643000ECD101017B510D0819E1010E806F826BD7
:106440008C0E816F0001ADEC21F0015207E07A0E55
:10645000F66E2D0EF76EF9EC18F006D0840EF66E7F
:106460002D0EF76EF9EC18F0D0D101017B510C081C
:1064700018E1806B826B8C0E816F0001ADEC21F016
:10648000015207E0A60EF66E2D0EF76EF9EC18F02D
:1064900006D0B00EF66E2D0EF76EF9EC18F0B5D1F1
:1064A00001017B510E084EE1816B8C0E806F000163
:1064B00034EC24F002C07DF101C07CF101017C5379
:1064C0000BE17D5309E1D20EF66E2D0EF76E000141
:1064D000F9EC18F035D001017C2D0BD07D5309E18A
:1064E000DA0EF66E2D0EF76E0001F9EC18F028D0DA
:1064F0000101300EA76F0001DBEC18F0780E0101EE
:10650000A76F0001DBEC18F07DC190F1370E01019F
:10651000916F000176EC1FF07CC190F1370E010104
:10652000916F000176EC1FF00D0E0101A76F0001C5
:10653000DBEC18F00A0E0101A76F0001DBEC18F08C
:1065400064D101017B510F0841E1000161EF29F0A5
:10655000E20EF66E2D0EF76E040E01019E6F000125
:1065600009EC19F0020EE96E6AC183F169C182F18A
:1065700068C181F167C180F1010E0101846F0001E2
:106580002CEC2BF0200E0101A76F0001DBEC18F0C2
:10659000020EE96E6EC183F16DC182F16CC181F1B1
:1065A0006BC180F1010E0101846F00012CEC2BF016
:1065B0000D0E0101A76F0001DBEC18F00A0E0101BE
:1065C000A76F0001DBEC18F020D101017B51060818
:1065D0002AE1816B8C0E806F000103EF2CF002C06A
:1065E0007DF101C07CF1F40EF66E2D0EF76E040EF7
:1065F00001019E6F000109EC19F0100EE96E7DC1DA
:106600009FF17CC19EF123EC1DF00D0E0101A76FDF
:106610000001DBEC18F00A0E0101A76F0001DBECB2
:1066200018F0F3D001017B5113081FE100018C51D8
:106630004F080CE18D514E0809E1010EAA6FFE0EC4
:10664000F66E2D0EF76EF9EC18F007D0AA6B080E57
:10665000F66E2E0EF76EF9EC18F0120EF66E2E0E88
:10666000F76EF9EC18F0D1D001017B511408D8A4D1
:10667000A6D000018C513F08D8A491D04F0E010143
:10668000A76F0001DBEC18F06B0E0101A76F000192
:10669000DBEC18F0200E0101A76F0001DBEC18F015
:1066A000F0C090F1370E0101916F000176EC1FF000
:1066B0002C0E0101A76F0001DBEC18F0F1C090F186
:1066C000370E0101916F000176EC1FF02C0E0101D5
:1066D000A76F0001DBEC18F0F2C090F1370E01015A
:1066E000916F000176EC1FF02C0E0101A76F0001E5
:1066F000DBEC18F0F9C090F1370E0101916F000149
:1067000076EC1FF02C0E0101A76F0001DBEC18F0F6
:10671000FBC090F1370E0101916F000176EC1FF084
:106720002C0E0101A76F0001DBEC18F0FDC090F109
:10673000370E0101916F000176EC1FF0300EF66EFE
:106740002E0EF76E090E01019E6F000109EC19F083
:10675000CFC090F1370E0101916F000176EC1FF070
:106760003B0EF66E2E0EF76E0C0E01019E6F0001B1
:1067700009EC19F0100EE96E5FC19FF15EC19EF148
:1067800023EC1DF00D0E0101A76F0001DBEC18F0EA
:106790000A0E0101A76F0001DBEC18F00FD0010118
:1067A000816B8C0E806F0001B3EF2CF0015206E17B
:1067B0004E0EF66E2E0EF76EF9EC18F026D0000194
:1067C000A85323E0036AA851880FE96E000E032046
:1067D000EA6EEF6A540EF66E2E0EF76E0C0E010185
:1067E0009E6F000109EC19F0EA6A880EE96EA0ECD0
:1067F0002CF00D0E0101A76F0001DBEC18F00A0E62
:106800000101A76F0001DBEC18F0A86B89EF35F0F0
:10681000F86AD09E0E8EEA6AE96A938293803A0EF5
:10682000C86E360EC66E096A276A7A6B816BA86BD2
:10683000AA6BAC6B0A0EAB6FC80EAD6FAE6BCF6BB5
:10684000010E01015A6F5B6B5D6BD00E5C6F5F6B6D
:106850005E6B606B616B626B636B646B656B030E8D
:10686000666FC150C00B0F09C16E070EB46E216A6E
:10687000040E226E100E236E0001826B836BD06BB0
:10688000D16BD26BD36BD46BD56BD66BD76BD86B0C
:10689000D96BDA6BDB6BDC6BDD6BDE6B3B0EDF6FBA
:1068A000200EE06F8B0EE16FA70EE26F120EE36F0A
:1068B000130EE46F030EE56F110EE66F830EE76FA4
:1068C000E86BD30EE96F0C0EEA6F010EEB6FEC6B09
:1068D000ED6BEE6BEF6B400EF06FF16BF26BF36BE9
:1068E000F46BF56BF66B0F0EF76FF86BF96BFA6BD9
:1068F000FB6BFC6BC40EFD6FFE6BFF6B0101006B4D
:10690000016B026B036B046B056B066B076B086B0B
:10691000096B0A6B0B6B0C6B0D6B0E6B0F6B106BBB
:10692000116B126B136B146B156B166B176B186B6B
:10693000196B1A6B1B6B1C6B1D6B1E6B4A0E1F6F4A
:10694000206B216B226B120E236F130E246F030E2C
:10695000256F110E266F830E276F286BD30E296FBC
:106960000C0E2A6F010E2B6F2C6B2D6B2E6B2F6B69
:10697000400E306F316B326B336B346B356B366B73
:106980000F0E376F386B396B3A6B3B6B3C6BC40E39
:106990003D6F3E6B3F6B406B416B426B436B446B97
:1069A000456B466B476B486B496B4A6B4B6B4C6B4B
:1069B0004D6B4E6B4F6B530E506F570E516F360E23
:1069C000526F536B530E556F570E566F370E576FEE
:1069D000586BFF0E736F746F756F766F0A6A0001E4
:1069E000A86B6F886F84C69A01015A6B5B6BC150AC
:1069F000C00B0709C16EC080C082C084C08EC28037
:106A0000D190800ED56ECD6A950EB16E070EB46E24
:106A10009250926E270E006E002EFED700D0B4501A
:106A2000A19CB56AD26AD36AD350E80EB36E970EB2
:106A3000B26EA0829D86C00EF212C80E0001AD6F2C
:106A400094948B9401019F6F000133EC17F0FF0EBB
:106A5000A96EA86AA69CA69EA684F250006EF29E1D
:106A60000F01550EA76EAA0EA76EA682A6B2FED77C
:106A7000A6940050F212000182EF17F0AF51AA085D
:106A800003E1B05155082FE0550EB06FAA0EAF6F5D
:106A9000C46BC36BB66B280EB56FA90EB46F4D0EE9
:106AA000B36F240EB26F7D0EB16FCB0EBA6FBE0EF8
:106AB000B96F7F0EB86F7E0EB76F280EBE6F610E76
:106AC000BD6FBC6B7F0EBB6F8E0EC26F590EC16F58
:106AD000C06B7F0EBF6FC86BC76BC66BC56FE80E10
:106AE000CE6F970ECD6F94928B820101776BFF0E64
:106AF000786F0001AD5303E094948B8402D094949A
:106B00008B947BA102D0A9EF17F0A95305E052EFB7
:106B100031F0A96B280EAD6F01015A5348E05B5369
:106B200028E10001F2A523D0AC530DE1AB510108DF
:106B30000AE30101806B010E826F500E816F00012C
:106B4000ADEC21F014D0F2AD09D0010E0101816F3E
:106B5000500E806F000134EC24F009D0010E0101C9
:106B6000806F826F500E816F0001ADEC21F01ED05E
:106B700001015B2D1CD022AD1AD00001AC530DE1F8
:106B8000AB5101080AE30101806B010E826F500EC8
:106B9000816F0001ADEC21F009D0010E0101806F81
:106BA000826F500E816F0001ADEC21F00101A1D781
:026BB0000300E0
:020000040030CA
:0E00000020CE3E1E0087A1000FC00FE00F4073
:00000001FF
;PIC18F4550
;CRC=8356  CREATED="19-Jul-13 22:10"
