:0418000067EF2DF071
:081808000B6ED8CF0CF0E0CF0D
:101810000DF00001E9CF13F0EACF0EF0E1CF0FF0A9
:10182000E2CF10F0D9CF11F0DACF12F0F3CF19F0E8
:10183000F4CF1AF0FACF1BF0F5CF1CF0F6CF1DF065
:10184000F7CF1EF000C015F001C016F002C017F06F
:1018500003C018F0A0A230EF0CF0A1B297EF15F082
:101860009DA636EF0CF09EB631EF15F0A0AA3CEF26
:101870000CF0A1BADAEF14F015C000F016C001F0B8
:1018800017C002F018C003F013C0E9FF0EC0EAFF52
:101890000E8E0FC0E1FF10C0E2FF11C0D9FF12C0D1
:1018A000DAFF19C0F3FF1AC0F4FF1BC0FAFF1CC017
:1018B000F5FF1DC0F6FF1EC0F7FF0B500DC0E0FF87
:1018C0000CC0D8FF1000F76AD60FF66E180EF7227C
:1018D0000900F5501200000302FFFFFFFFFFFFFFAA
:1018E000FFFFFFFFFFFFF76AF60FF66E180EF722F5
:1018F0000900F550120000FF02FFFFFFFFFFFFFF8E
:10190000FFFFFFFFFFFFF76A160FF66E190EF722B3
:101910000900F550120040000800400000000000DF
:1019200000000000000000000000000000000000B7
:10193000000000000000F76A460FF66E190EF7224D
:101940000900F550120040000000400000000000B7
:101950000000000000000000000000000000000087
:10196000000000000000F76A760FF66E190EF722ED
:101970000900F550120009024300020100803209FB
:1019800004000001020201000524001001042402E9
:101990000205240600010524010001070581030852
:1019A00000FA09040100020A0000000705020240D3
:1019B00000010705820240000100F76ACA0FF66EB7
:1019C000190EF7220900F55012000200F76ADC0F29
:1019D000F66E190EF7220900F550120012171B209F
:1019E000FFFFFFFFF76AF40FF66E190EF7220900EA
:1019F000F550120012011001020000405746474BFB
:101A0000000101020001F76A160FF66E1A0EF722A6
:101A10000900F5501200040309040C034E004F00A6
:101A20004B00490041002003420054005500530080
:101A300042004B004200330020004B0042004300B4
:101A4000540052004C00F76A560FF66E1A0EF72239
:101A50000900F55012005645520050474D005357AB
:101A60004F0053574300535750004E5653004144C4
:101A7000430052535400534D500056434C004343CF
:101A80004C0052415700494F4C00494F4800494EC5
:101A900050005245470053494D00555342004442BF
:101AA0004700414343006D92699468A402D0689452
:101AB000FCD7E6EF14F0400E0401016F040E036F33
:101AC000180E026F880E006F046B040E076F580E1D
:101AD000066F0001000C70A002D0EDDF7090689AD4
:101AE000EFEF14F06A6A6892F5EF14F00101BE910D
:101AF000BDBFBE81BD9FBD51100803E2000E016E47
:101B00001BD0BEA10DD0036ABD510001DCDEFF0871
:101B100002E1000E01D0010E016E01010DD00CD0CA
:101B2000036ABD510001DFDEFF0802E1000E01D0B3
:101B3000010E016E010100D00001000C0101C25133
:101B4000C403F3CF01F0F4CF00F0C503F350002637
:101B5000C351C403F3500020026E0001000C036A5D
:101B60000101BC51700FE96E0F0E0320EA6EEF6A9F
:101B7000BCC1BDF10001BADF015227E00101C36B16
:101B8000BCC1C2F1C56B080EC46F0001D7DF0101F3
:101B900001C0E9FF040E0224EA6EEF6AC36BBCC108
:101BA000C2F1C56B080EC46F0001C8DF02C0BEF1F0
:101BB00001C0BDF1040E0101BD27000EBE23BDC151
:101BC000E9FF040EBE25EA6EEF6A0001000C010E6B
:101BD0000101BB6FBB510F0807E3BBC1BCF10001A2
:101BE000BEDF0101BB2BF6D70001000C2D6A2C6A69
:101BF000250E2B6E800E2A6E2E6A2F6A080E306E0E
:101C00007F6B7E91326A316A7A6B7B91000C0101A5
:101C1000B16BB15101080AE3036AB151280FE96EB3
:101C2000000E0320EA6EEF6AB12BF3D70001DEDF6E
:101C3000056A010E066E046A000C6896000C6A6A5A
:101C4000686A9F0E6B6E3D0E696E6E6AC0DFDFDFE5
:101C5000160E706E68A602D0F0DFFCD76D982BDFF1
:101C6000030E096EFBEF14F0698468986D8201EF32
:101C700015F0689C07EF15F0B6C124F0000CFF0EBC
:101C8000246E000C0101B46B27522CE0B4513F08C4
:101C900029E30750000A000105E0020A09E0010AF1
:101CA0000DE012D0036A26505EDEE8CFB5F10CD00D
:101CB000036A2650A8DEE8CFB5F106D0036A2650A5
:101CC00091DEE8CFB5F100D0262A27060101B451F4
:101CD000B42B580FE96E040EEA6ED8B0EA2AB5C1EB
:101CE000EFFFD2D7275204E1B451400801E0046A63
:101CF000B4C1B6F10001C0DF000C266A076A040116
:101D00001B51010A000107E0030A0AE0010A0BE087
:101D1000220A1BE02BD0120E276E030E076E28D06E
:101D2000430E276E25D0020E076E036A04011A5176
:101D3000210FE96E000E0320EA6EEFCF26F0036A52
:101D40002650000160DE276E13D0036A04011A5189
:101D500000013CDE266E263C01D006D0036A2650E8
:101D600002DE276E05D002D08ADF0ED088DF0CD0CD
:101D700004011F5305E127501E5D02E21EC427F037
:101D8000010E046E00017EDF12EF10F00101B3536B
:101D900006E1040E096E00011ADFE7D00101050E0D
:101DA000096E040EB66F980EB56F010EB46FB45184
:101DB0000F08D8A0DAD0B4C1BCF10001D0DE010117
:101DC000B76B036AB45100018EDDFF0865E0040EB5
:101DD0000101B76FD890B435036A0001ACDD09008A
:101DE000F5CF03F00101B86F03C0B9F1C36BB4C103
:101DF000C2F1C56B080EC46F0001A0DE01C0BBF1CB
:101E0000010E01010124016E000E0220036E01C0CB
:101E1000E9FF040E0324EA6EB8C1EFFFC36BB4C13F
:101E2000C2F1C56B080EC46F000188DE01C0BBF1B2
:101E3000020E01010124016E000E0220036E01C09A
:101E4000E9FF040E0324EA6EB6C1ECFFED52B5C102
:101E5000EFFFD890B435036A00016DDD0900F5CFBE
:101E600003F00101B5270350B623880EBA6FB9B14C
:101E7000BA81B9B3BA83C36BB4C1C2F1C56B080EE2
:101E8000C46F00015BDE010101C0E9FF040E022402
:101E9000EA6EBAC1EFFF0001036A0101B45100010B
:101EA00012DDFF0847E00101B783C36BB4C1C2F183
:101EB000C56B080EC46F000141DE02C0BCF101C059
:101EC000BBF1040E0101BB27000EBC23020EBB2593
:101ED000016E000EBC21036E01C0E9FF040E032455
:101EE000EA6EB6C1ECFFED52B5C1EFFFD890B43544
:101EF000036A000108DD0900F5CF03F00101B527F1
:101F00000350B623C36BB4C1C2F1C56B080EC46FD6
:101F1000000114DE02C0BCF101C0BBF1040E0101DE
:101F2000BB27000EBC23BBC1E9FF040EBC25EA6E33
:101F3000400EEF6E0101B751060802E10E0EB76FB9
:101F4000036AB4510001BFDC010803E00101B78955
:101F50000001036A0101B451700FE96E0F0E0320F6
:101F6000EA6EB7C1EFFFB42B22D700010AEF10F0E1
:101F700004011951000A00010DE0010A15E0020AEE
:101F800020E0060A2AE0030A31E00E0A31E0010AE5
:101F900037E046D006C058F40401596B020E010127
:101FA000B66F000169DE3ED004011A2D07D0010E84
:101FB00006160101B66B00015FDE02D000015FDE94
:101FC00031D004011A2D06D006820101B66B000142
:101FD00053DE02D0000153DE25D0020E046E1AC477
:101FE00025F00101B66B000147DE1CD086D61AD061
:101FF00005C058F4010E0101B66F00013DDE12D09C
:1020000004011A5101080AE31AC405F01AC4B3F115
:102010000001BCD60101B66B00012EDE000102D02A
:102020002EDE00D0ABEF11F005C0B3F10401195161
:10203000000A000105E00A0A0CE0010A2BE03FD08B
:102040000401586B596B020E0101B66F000114DEDA
:1020500038D00101B3531BE0010EB35D036A0001E8
:10206000ACDC016E04011C5DD8A002D001010FD0D0
:10207000036A1C51280FE96E000E0320EA6EEFCFB1
:1020800058F4010E0101B66F0001F6DD02D0000127
:10209000F6DD17D00101B3530FE0036A04011C51B0
:1020A000280FE96E000E0320EA6E1AC4EFFF01014B
:1020B000B66B0001E1DD02D00001E1DD02D0DFDD21
:1020C00000D0ABEF11F00101B491B3BFB481B39F65
:1020D000B4A119D0C36BB3C1C2F1C56B080EC46FF4
:1020E00000012CDD02C0B6F101C0B5F1040E010102
:1020F000B527000EB623B5C1E9FF040EB625EA6E7A
:10210000880EEF6E0FD0C36BB3C1C2F1C56B080E62
:10211000C46F000113DD010101C0E9FF040E0224B8
:10212000EA6EEF6A000115EF11F00101B491B3BF3F
:10213000B481B39FB4A119D0C36BB3C1C2F1C56B55
:10214000080EC46F0001FADC02C0B6F101C0B5F19F
:10215000040E0101B527000EB623B5C1E9FF040E38
:10216000B625EA6E840EEF6E10D0C36BB3C1C2F118
:10217000C56B080EC46F0001E1DC010101C0E9FF7D
:10218000040E0224EA6E840EEF6E00011DEF11F0C2
:102190000101B491B3BFB481B39FB4A119D0C36B93
:1021A000B3C1C2F1C56B080EC46F0001C7DC02C029
:1021B000B7F101C0B6F1040E0101B627000EB72336
:1021C000B6C1E9FF040EB725EA6EEFCFB5F110D026
:1021D000C36BB3C1C2F1C56B080EC46F0001AEDCA6
:1021E000010101C0E9FF040E0224EA6EEFCFB5F150
:1021F000B5AF02D0B5B502D0000E01D0010E016E10
:10220000000129EF11F01CC4BDF170DC01522EE079
:1022100004011951010A000105E0020A0BE0030A5A
:1022200011E022D01CC4B3F14ED70101B66B0001FE
:1022300023DD1CD01CC4B3F178D70101B66B0001BB
:102240001BDD14D00401586B596B1CC4B3F10001A1
:102250009FD7015203E0010E0401586F020E0101E5
:10226000B66F000109DD02D00ADD00D0ABEF11F03E
:10227000FE0E246E000C04011C2D01D002D01C5354
:102280004FE11951000A00010BE0010A0DE0210A9B
:102290001CE0010A1FE0030A30E0010A35E03DD0EE
:1022A000010E816FE5DF3BD0040EEA6E580EE96E39
:1022B000E26A330EE16E080E016EE6CFEEFF012EEC
:1022C000FCD71EC4B6F1D8DC2AD0020E816F7E8105
:1022D000CFDF25D0040EEA6E580EE96EE26A2A0EB0
:1022E000E16E070E016EE6CFEEFF012EFCD7070E62
:1022F0000101B66F0001C0DC12D01AC47FF00101E9
:10230000B66B0001B9DC0BD01AC432F01BC431F03B
:102310000101B66B0001B0DC02D0B1DC00D00401D9
:102320000001ABEF11F0046A040118517F0B000AA1
:10233000000107E0010A07E0030A07E0230A07E0BB
:1023400008D016D608D070D606D05DD704D093D763
:1023500002D095DC00D011EF14F00101C36BB4C1C1
:10236000C2F1C56B080EC46F00019EEC0DF00101B7
:1023700001C0E9FF040E0224EA6EEFCFB6F1B551B9
:10238000020806E1B6AD02D0B56B02D0010EB56F02
:10239000B55103081CE1840EB66FC36BB4C1C2F122
:1023A000C56B080EC46F00019EEC0DF002C0BAF1BF
:1023B00001C0B9F1040E0101B927000EBA23B9C159
:1023C000E9FF040EBA25EA6E840EEF6E07D0B52D34
:1023D00003D0C80EB66F02D0880EB66FD890B43551
:1023E000036A00019BEC0CF00900F5CF03F001013A
:1023F000B76F03C0B8F1C36BB4C1C2F1C56B080EAF
:10240000C46F00019EEC0DF001C0B9F1010E010195
:102410000124016E000E0220036E01C0E9FF040ECC
:102420000324EA6EB7C1EFFFB8B1B681B8B3B68383
:10243000C36BB4C1C2F1C56B080EC46F00019EEC42
:102440000DF0010101C0E9FF040E0224EA6EB6C1DD
:10245000EFFF0001000C036A0101C151700FE96E2A
:102460000F0E0320EA6EEF521BE0C36BC1C1C2F135
:10247000C56B080EC46F00019EEC0DF002C0C3F1E5
:1024800001C0C2F1040E0101C227000EC323C2C164
:10249000E9FF040EC325EA6EEFCFC2F1C2AF02D04E
:1024A000000E01D0010E016E0001000CBCC1C1F193
:1024B000D2DF0152D8B486D00101C36BBCC1C2F1D6
:1024C000C56B080EC46F00019EEC0DF002C0C2F196
:1024D00001C0C1F1040E0101C127000EC223010E8B
:1024E000C125016E000EC221036E01C0E9FF040E7A
:1024F0000324EA6EBDC1EFFFBF51020820E1C36BA8
:10250000BCC1C2F1C56B080EC46F00019EEC0DF09A
:1025100002C0C2F101C0C1F1040E0101C127000EC9
:10252000C223C1C1E9FF040EC225EA6EEFCFC0F19C
:10253000C0AD02D0BF6B02D0010EBF6F1AD0BF5129
:10254000040817E1C36BBCC1C2F1C56B080EC46FB0
:1025500000019EEC0DF0010101C0E9FF040E022410
:10256000EA6EEFCFC0F1C0AD03D0010EBF6F01D056
:10257000BF6BBF2D03D0C80EC06F02D0880EC06FD6
:10258000BEB1C081BEB3C083C36BBCC1C2F1C56B59
:10259000080EC46F00019EEC0DF002C0C2F101C034
:1025A000C1F1040E0101C127000EC223C1C1E9FF20
:1025B000040EC225EA6EC0C1EFFF010E016E05D008
:1025C00000D00001000E016E01010001000C8151DC
:1025D000010A03E0030A15E028D0EA6A330EE96E27
:1025E000040EE26E180EE16E080E016EE6CFEEFFED
:1025F000012EFCD70101B66B00013CEC0EF0816BA3
:1026000016D0EA6A2A0EE96E040EE26E180EE16E2A
:10261000070E016EE6CFEEFF012EFCD7816B0101A4
:10262000B66B00013CEC0EF002D0816B00D056EF8F
:1026300013F00101C36BB4C1C2F1C56B080EC46FC6
:1026400000019EEC0DF002C0B6F101C0B5F1010E23
:1026500001010124016E000E0220036E01C0E9FF9A
:10266000040E0324EA6E036AEFCF01F003C002F008
:1026700000014AEF13F07B91020E0101B46FB56FB8
:1026800000016BDE000C7B817D6B020E0101B46FDB
:102690000001CFD701C07CF07C5301E1ECDF5DEF9E
:1026A00013F00101B35304E1000191D706D00101F9
:1026B000B351020803E10001E6D701010001000C5B
:1026C000B4C16EFF0101B45303E0040E096E02D0E1
:1026D000020E096E000172EF13F0056A046A25C04C
:1026E000B4F1EED7EBEF13F0B4C1C1F1B4DE015297
:1026F0004AE00101C36BB4C1C2F1C56B080EC46FDF
:1027000000019EEC0DF002C0BDF101C0BCF1040E51
:102710000101BC27000EBD23020EBC25016E000E78
:10272000BD21036E01C0E9FF040E0324EA6EECCF65
:1027300003F0ED52EFCFBAF103C0BBF1BBC1EAFF2A
:10274000BAC1E9FFB6C1E2FFB5C1E1FFB8C102F00D
:10275000B7C101F0015202E0022A02D0025206E0A3
:10276000E6CFEEFF012EFCD7022EFAD7B4C1BCF1A2
:10277000B8C1BEF1B7C1BDF1B9C1BFF1000196DE6C
:10278000015003D000D0000E016E000C020E0101BA
:10279000B46FB66B3B0EB56FB86B7AC0B7F1020E73
:1027A000B96F0001A1DF7AC080F07A6B000C7A5318
:1027B00001E0ECDFF2EF13F00101B3530EE1042C62
:1027C00005D0000142EC0EF006D0010104500208D1
:1027D00003E1000182D7010106D0B351020803E1F1
:1027E0000001E5D701010001000C08300101B16FC3
:1027F000B133B1331F0EB11708524FE1040100513C
:102800003C0B0101B26F430E040100170101B251EC
:10281000340825E104010451800B01E0046B000140
:1028200082D56D98243C07D00101B46B030EB56FBF
:10283000000193DD12D00101B46B020EB56F0001EF
:102840008CDD2450FE0809E00101BC6BBE6B24C086
:10285000BDF1040EBF6F000129DE1DD00101B25190
:1028600004081AE1B36B00011CDF0101B46B020E16
:10287000B56F000172DD2450FE080CE0243C01D04D
:1028800009D00101BC6BBE6B24C0BDF1010EBF6F4E
:1028900000010CDE00D001018AD00850040818E1C4
:1028A000430E04010417FF0E246E0101B36B0001F7
:1028B00083DF243C01D00AD00101BC6BBE6B24C075
:1028C000BDF1020EBF6F0001F1DD00D06FD001013C
:1028D00008B430D0C36BB1C1C2F1C56B080EC46F70
:1028E00000019EEC0DF001C0B3F1010101C001F047
:1028F000040E0224036E01C0B3F1B46FC36BB1C107
:10290000C2F1C56B080EC46F00019EEC0DF0010111
:1029100001C0E9FF040E0224EA6EEF50430BB4C17C
:10292000EAFFB3C1E9FFEF6EB1C1B3F10001B9DE57
:102930003DD00101C36BB1C1C2F1C56B080EC46FBC
:1029400000019EEC0DF002C0B4F101C0B3F1040E21
:102950000101B327000EB423B3C101F0040EB42566
:10296000036EB3C1B3F1B46FC36BB1C1C2F1C56B38
:10297000080EC46F00019EEC0DF002C0B6F101C05C
:10298000B5F1040E0101B527000EB623B5C1E9FF6C
:10299000040EB625EA6EEF50430BB4C1EAFFB3C193
:1029A000E9FFEF6EB1C1B3F1000106DF01010001E3
:1029B00013EF15F0A19A095201E13ED068523CE0B4
:1029C00068A404D069A402D053EF0DF06DA201D029
:1029D00033D068AA04D069AA02D06BEF0DF068A2C8
:1029E00004D069A202D072EF0DF068A004D069A0F3
:1029F00002D01FEF0EF068A804D069A802D034EF0F
:102A00000EF068AC04D069AC02D039EF0EF00101D1
:102A1000B06B68A60AD069A608D06CCF08F0000198
:102A20001DEC0EF0E2D602D0010105D00101B0513B
:102A3000B02B0308EEE200013CEF0CF0425455537A
:102A4000424B423320342E333200C950B3C1C9FF48
:102A5000C6889E96C7B0FED7016AC6B8012A8FEF16
:102A600015F0C7BA04D00101666BC7B4668F0101C7
:102A70006651662BB16F140E0001AD6F01015A5300
:102A800001E151D0B1517F0826E3B15306E0C69C65
:102A90009EA6FED7C950C688B06FB12D07D0B0C171
:102AA000CFF03F0E0001CF1717D00101B15101083F
:102AB00012E2010E616FCFC064F1B0C165F1000197
:102AC000CF51CF2B036A01015C25E96E5D510320D4
:102AD000EA6EB0C1EFFF00010101B1517F0823E2AE
:102AE000010E606FCFC062F1036A0001CF51010196
:102AF0005C25E96E5D510320EA6EEFCF63F10001C2
:102B0000CF51CF2B036A01015C25E96E5D51032093
:102B1000EA6EEFCFB2F1B2C1B3F1000196D7010175
:102B20005E2BD8B45F2B9E9600013CEF0CF0CEC01C
:102B3000B3FFCDC0B2FFAD5301E0AD07AB51AC1157
:102B400005E0AB51D8B4AC07AB0703D0AC6B0A0EB1
:102B5000AB6FA1923CEF0CF04E56533A206E506F83
:102B6000727453746174655B25645D3D3078253003
:102B700032580D0A00004E56533A206E506F727450
:102B8000436F6E6669675B25645D3D307825303242
:102B9000580D0A004552523A2057726F6E67205303
:102BA000574F20466F726D61743A2053574F205231
:102BB0005843597C53574E7C5057520050574D53F1
:102BC0007769746368533A206E5265706561743D2D
:102BD000256C642C206E4F6E54696D653D256C64C8
:102BE0002C206E4F666654696D653D256C640D0A38
:102BF00000004552523A496E76616C696465205214
:102C000065676973746572204164647265737320CB
:102C100025730D0A00004552523A496E76616C697F
:102C200064652052656769737465722041646472DB
:102C300065737320307825580D0A00004552523ACA
:102C4000496E76616C696465205265676973746565
:102C500072204164647265737320307825580D0AC0
:102C600000004552523A496E636F72726563742078
:102C7000666F726D61742025730D0A004932433A04
:102C800020526561642052656720307825303258C3
:102C900028307825303258290D0A00004932433A4D
:102CA000204E6F2072656164206F700D0A004932FA
:102CB000433A205772697465205265672030782541
:102CC00030325828307825303258290D0A004932E0
:102CD000433A204E6F207772697465206F700D0A39
:102CE00000004932433A204354524C5245475B312D
:102CF0003A335D3D3078253032582C3078253032EB
:102D0000582C3078253032580D0A00004552523A7E
:102D1000496E636F727265637420666F726D617461
:102D20002025730D0A004F6B0D0A00004F6B0D0A32
:102D300000004F6B0D0A00004F6B0D0A00004F6B37
:102D40000D0A00004F4B0D0A00004F6B20494F4801
:102D50000D0A00004552523A20496E636F72726547
:102D6000637420494F4820636F6D6D616E642E0D52
:102D70000A004F6B20494F4C0D0A00004552523A51
:102D800020496E636F727265637420494F482063F7
:102D90006F6D6D616E642E0D0A004465627567206B
:102DA0004F6E0D0A00004465627567204F66660D20
:102DB0000A004F6B0D0A00004F6B2025582C255838
:102DC0002C25582C25582C25582C25580D0A4144C3
:102DD00044523D307825580D0A52656164636F7521
:102DE0006E743D256C640D0A00004F6B0D0A0000E7
:102DF0004552523A556E6B6E6F776E2025730D0AF1
:102E00000000010EEA6E930EE96EEF500EE00F0E19
:102E1000016E006A002EFED7012EFBD78F0E006ECA
:102E2000002EFED70000EF2EF2D7000C6D6A696A03
:102E3000080E6F6E945030090101946E096A206A81
:102E4000F2BE208EF29E000107EC0EF020BEF28E44
:102E50002BEF17F0EBD751EF17F0206AF2BE208E60
:102E6000F29E07EC0EF020BEF28E6D6A140E6F6EAD
:102E7000696A6D86010E096E41EF17F06DB601D0DB
:102E8000ECD7092C0BD06DBA09D0686A696AA08AA0
:102E9000C00EF212110E696E020E096E52EF17F09B
:102EA000D9D7ECD709500208FCE19DEF2EF07BB199
:102EB00001D0FDD77D517D2BA00FE96E040EEA6E87
:102EC000D8B0EA2AEFCF70F1010100017C517D5D9D
:102ED00008E3206AF2BE208EF29E3BEC13F020BE87
:102EE000F28E010170C101F0000178EF17F0DFD719
:102EF00001C06FF101016F510D0812E10001A851ED
:102F0000020802E3A86B20D0036AA851880FE96E7B
:102F1000000E0320EA6EEF6A010EA96F15D00101C1
:102F20006F510C0812E20001A8511F08D8B002D05E
:102F300001010BD0A851A82B036A880FE96E000E7F
:102F40000320EA6E6FC1EFFF01010001E4EF2EF0F4
:102F50000101746B745113083DE3010E766F756BBC
:102F60000001A8510101755D2EE2755102082BE3A5
:102F7000036A7551880FE96E000E0320EA6EEFCFE9
:102F800077F17751600806E277517A0803E37751C9
:102F9000DF0B01D07751776F7451040DF350796BCB
:102FA000786F036A75517825016E795103220150BB
:102FB000000123EC0DF0016E0101775D02E0766BFC
:102FC00002D0752BCDD7765303E074C101F004D045
:102FD000742BC0D7FF0E016E0001EDEF2AF093961F
:102FE0008A960A0E0101936F00010BDF93968A8681
:102FF000F6EF2AF0080E016E020E006E002EFED7CC
:103000008A9A939A020E006E002EFED70101A03715
:103010008A98D8B09388D8A09398938A81AAFED72B
:10302000012E01D002D00001E7D7020E006E002E63
:10303000FED78A9A939A00009388020E006E002EA3
:10304000FED7020E006E002EFED7938A81AAFED70D
:10305000016A020E006E002EFED781B801808A9AA6
:10306000939A8A9893980001000CFF0E0101676FF4
:10307000686F696F6A6F9388020E006E002EFED72C
:10308000938A020E006E002EFED78A989398020E45
:10309000006E002EFED78A9A939A4E0EA06F000102
:1030A000A9DF060E0101A06F0001A4DFFF0E0101E0
:1030B000A06F00019FDFFF0E0101A06F00019ADFEA
:1030C00093980000938A81AAFED7020E006E002E0C
:1030D000FED700D000009388020E006E002EFED7AF
:1030E000F8EF2AF001019E91F2BE9E81F29E00014E
:1030F0007A513E0802E23E0E7A6F7A517A2B036AC9
:103100003B0FE96E000E0320EA6E9DC1EFFFF29EB9
:1031100001019EB1F28E000191EF18F09CC19DF16A
:10312000E1D7206AF2BE208EF29E020E0101C16F2D
:1031300000012BEC12F020BEF28E015208E0206A52
:10314000F2BE208EF29EC6EC13F020BEF28EC6EFC9
:1031500018F07A513E0817E2206AF2BE208EF29EE5
:10316000020E0101C16F00012BEC12F020BEF28EA5
:10317000015208E0206AF2BE208EF29EC6EC13F0E7
:1031800020BEF28EE6D79BC19CF1C8D7000C090087
:10319000F5520CE0F6CF99F1F7CF9AF1F5CF9BF10C
:1031A000D8DF99C1F6FF9AC1F7FFF1D7000C0101F2
:1031B0009951050802E2020E992799C19CF19C37AA
:1031C0009C379C37F80E9C179A519C139B5301E037
:1031D0009C8F9388020E006E002EFED7938A020EFB
:1031E000006E002EFED78A989398020E006E002E75
:1031F000FED78A9A939AE00EA06F0001FBDE9CC175
:10320000A0F1F8DE010E0101A06F0001F3DE93983A
:103210000000938A81AAFED7020E006E002EFED710
:1032200000D000009388020E006E002EFED7000C26
:10323000006A016A0101A251D890A3B100260032B0
:103240000132A3B3002600320132A3B500260032BA
:103250000132A3B7002600320132A3B900260032A2
:103260000132A3BB002600320132A3BD002600328A
:103270000132A3BF0026003201320001AEEF19F087
:103280000101A06B9E6B0A0E9F6F9D6B9B519C1161
:1032900003E1000E016EC3D0A051A02B036A9B2551
:1032A000E96E9C510320EA6EEFCFA1F1A1512D08E8
:1032B0000DE1010E9E6FA051A02B036A9B25E96EC4
:1032C0009C510320EA6EEFCFA1F10DD0A1512B0844
:1032D0000AE1A051A02B036A9B25E96E9C510320B3
:1032E000EA6EEFCFA1F1A1512F08D8B090D0A15133
:1032F0003908D8A08CD0A151300821E1036AA0512F
:103300009B25E96E9C510320EA6EEF5078080AE095
:10331000036AA0519B25E96E9C510320EA6EEF5091
:1033200058080DE1100E9F6FA02BA051A02B036A2F
:103330009B25E96E9C510320EA6EEFCFA1F19F51CE
:103340000A081DE1A1512F0819E2A151390816E31D
:103350000A0EA26F9DC1A3F100016AD7300E0101D0
:10336000A15D01249D6FA051A02B036A9B25E96EEE
:103370009C510320EA6EEFCFA1F1E4D748D09F51D2
:10338000100845E1A151600806E2A1517A0803E363
:10339000A151DF0B01D0A151A16FA1512F0803E270
:1033A000A151390806E2A151400831E2A151460875
:1033B0002EE3A1512F080CE2A151390809E39D39F0
:1033C000A26FF00EA217300EA15DA2259D6F09D04D
:1033D0009D39A26FF00EA217410EA15D0A0FA22522
:1033E0009D6FA051A02B036A9B25E96E9C51032081
:1033F000EA6EEFCFA1F1A151600806E2A1517A086F
:1034000003E3A151DF0B01D0A151A16FC6D79E2DBF
:1034100004D09F510A0801E19D6D9DC101F000019A
:10342000000C010199319D6F9D339D331F0E9D1737
:103430009951070B9E6F9A51020816E1036A9D513C
:10344000670F016E010E032201C0E9FF03C0EAFF0E
:10345000010E006E9E51016E04E0D8900036012EE0
:10346000FCD70050EF1244D0036A9D51670F016EE4
:10347000010E032201C0E9FF03C0EAFF010E006E46
:103480009E51016E04E0D8900036012EFCD700500A
:10349000FF0AEF169A5317E1036A9D51690F016EF7
:1034A000010E032201C0E9FF03C0EAFF010E006E16
:1034B0009E51016E04E0D8900036012EFCD70050DA
:1034C000FF0AEF1615D0036A9D51690F016E010EB8
:1034D000032201C0E9FF03C0EAFF010E006E9E5106
:1034E000016E04E0D8900036012EFCD70050EF1298
:1034F0009388020E006E002EFED7938A020E006E95
:10350000002EFED78A989398020E006E002EFED7EA
:103510008A9A939A4E0EA06F00016CDD060E01018F
:103520009D259F6FA06F000165DD036A01019D511C
:10353000670FE96E010E0320EA6EEFCF9FF19FC186
:10354000A0F1000157DD93980000938A81AAFED76D
:10355000020E006E002EFED700D000009388020EEF
:10356000006E002EFED79388020E006E002EFED74E
:10357000938A020E006E002EFED78A989398020E50
:10358000006E002EFED78A9A939A4E0E0101A06F0C
:10359000000130DD020E01019D259F6FA06F00012B
:1035A00029DD036A01019D51690FE96E010E0320B7
:1035B000EA6EEFCF9FF19FC1A0F100011BDD939850
:1035C0000000938A81AAFED7020E006E002EFED75D
:1035D00000D000009388020E006E002EFED7000C73
:1035E0000101956B036A95519225E96E9351032071
:1035F000EA6EEF5052084FE1952B036A95519225E0
:10360000E96E93510320EA6E300EEF5C966F020E66
:103610009527036A95519225E96E93510320EA6E2E
:10362000300EEF5C976F952B036A95519225E96EEA
:1036300093510320EA6EEF502F0818E2036A955168
:103640009225E96E93510320EA6EEF5039080EE39C
:1036500097510A0DF3CF97F1036A95519225E96EC0
:1036600093510320EA6E300EEF5C972794530AE0E3
:1036700097C199F196C19AF1010E9B6F000197DDF8
:1036800008D0010197C199F196C19AF19B6B000195
:103690008EDD49D00101036A95519225E96E93515F
:1036A0000320EA6EEF50530821E1020E9527955151
:1036B0009225996F000E93219A6F9C6F99C19BF18F
:1036C0000001DEDD01C098F10101945307E098C1CB
:1036D00099F19A6B0001A5DE07D0010198C199F11B
:1036E000020E9A6F00019DDE1ED00101036A955102
:1036F0009225E96E93510320EA6EEF50500808E1DD
:10370000945303E094928B8202D094928B920CD0CB
:103710000001AA5305E0940EF66E2B0EF76E37DD0E
:10372000000E016E03D00101010E016E0001000CBC
:1037300085C103F0010184C1E9FF85C1EAFF86511B
:10374000EF5C12E085C103F084C1E9FF85C1EAFFA7
:10375000EF5204E1000E016E026E0AD0842BD8B441
:10376000852B0001E5D7010184C101F085C102F07C
:103770000001000C01018D518F19800B916F8DAFED
:1037800005D08C1F8D1F8C2BD8B48D2B8FAF05D0FF
:103790008E1F8F1F8E2BD8B48F2B8C518E03F3CF9F
:1037A00001F0F4CF00F08F03F35000268D518E030B
:1037B000F3500020026E91AF05D0011E021E012AB7
:1037C000D8B4022A000158EF1CF001018A6B886B03
:1037D0000A0E896F876B866B8451851104E1000E98
:1037E000016E026EE8D08A518A2B036A8425E96E45
:1037F00085510320EA6EEFCF8BF18B512D080DE13F
:10380000010E886F8A518A2B036A8425E96E8551DF
:103810000320EA6EEFCF8BF10DD08B512B080AE11C
:103820008A518A2B036A8425E96E85510320EA6E4A
:10383000EFCF8BF18B512F08D8B0AFD08B51390817
:10384000D8A0ABD08B51300821E1036A8A5184257E
:10385000E96E85510320EA6EEF5078080AE0036AAA
:103860008A518425E96E85510320EA6EEF5058088D
:103870000DE1100E896F8A2B8A518A2B036A8425E9
:10388000E96E85510320EA6EEFCF8BF189510A086A
:1038900023E18B512F081FE28B5139081CE38D6BFC
:1038A0000A0E8C6F87C18FF186C18EF1000162D73D
:1038B000300E01018B5D0124866F000E0220876FA0
:1038C0008A518A2B036A8425E96E85510320EA6EAA
:1038D000EFCF8BF1DED761D0895110085EE18B51BB
:1038E000600806E28B517A0803E38B51DF0B01D0AD
:1038F0008B518B6F8B512F0803E28B51390806E2F5
:103900008B5140084AE28B51460847E38B512F0800
:1039100019E28B51390816E386358C6F87358D6F28
:103920008C378D378C378D378C378D37F00E8C1761
:10393000300E8B5D8C25016E000E8D2101C086F14D
:10394000876F16D086358C6F87358D6F8C378D37A6
:103950008C378D378C378D37F00E8C17410E8B5D81
:103960000A0F8C25016E000E8D2101C086F1876F34
:103970008A518A2B036A8425E96E85510320EA6EF9
:10398000EF508B6F600806E28B517A0803E38B518E
:10399000DF0B01D08B518B6FADD789510A0807E13E
:1039A000882D05D0861F871F862BD8B4872B86C10C
:1039B00001F087C102F00001000C0900F6CF93F17D
:1039C000F7CF94F1F5CF9BF1A9EC18F093C1F6FF76
:1039D00094C1F7FF0101922F01D002D00001EDD771
:1039E0000001000CEACF9AF1E9CF99F1010193AF00
:1039F00008D0998F99A9992B921F931F922BD8B415
:103A0000932B9339F009956F9527E20F966F320F3C
:103A1000986F93510F0B962796279827E90F976F6A
:103A20009727972792390F0B97279827973798371B
:103A3000981F983792510F0B98279537070E946F60
:103A40000A0E97079827FDE396079727FDE395074A
:103A50009627FDE394079527FDE3010EEA6E940E89
:103A6000E96E070E9915999DE906991507E199B92F
:103A7000E92A99B903D0200E006E1CD0E926980ED1
:103A8000E95CD8B4998DEF50006E08E199BD06D07D
:103A900099B91ED099B702D0200E0BD099AF06D09D
:103AA0002D0E006EED50999D999F04D0998799999C
:103AB000300E0026EACF93F1E9CF92F100C09BF1DE
:103AC0000001A9EC18F093C1EAFF92C1E9FF0101DE
:103AD000EE5099ADD4D70001000CAA533CE0BC0EC7
:103AE000F66E2B0EF76E140E0101926F000165DF6A
:103AF000100EE96E87C193F186C192F173DFD30E88
:103B0000F66E2B0EF76E0A0E0101926F000155DF63
:103B1000100EE96E89C193F188C192F163DFE00E66
:103B2000F66E2B0EF76E0B0E0101926F000145DF52
:103B3000100EE96E8BC193F18AC192F153DF0D0E25
:103B400001019B6F0001A9EC18F00A0E01019B6FA7
:103B50000001A9EC18F001018D6B8C6B8D51875D14
:103B6000D8A077D004E186518C5DD8B072D089C1DD
:103B70008FF188C18EF18BC191F18AC190F185C11D
:103B800093F184C192F1010E946F000129DD9494A8
:103B90008B9401018F5100080BE2FF0E936F00011F
:103BA00001EC17F0FF0E01018E5F000E8F5BF2D764
:103BB0008FC192F1922B9207D8B407D0FF0E936F6A
:103BC000000101EC17F00101F6D78EC193F100015D
:103BD00001EC17F085C193F184C192F10101946B5E
:103BE0000001FEDC94948B84010E0101865D006E61
:103BF000000E8759036E00C001F08D51035C25E370
:103C000003E101508C5D21E2915100080BE2FF0EAF
:103C1000936F000101EC17F0FF0E0101905F000EA1
:103C2000915BF2D791C192F1922B9207D8B407D051
:103C3000FF0E936F000101EC17F00101F6D790C160
:103C400093F1000101EC17F001018C2BD8B48D2BFE
:103C500085D794948B94010E016E0001B6EF1EF08F
:103C600001017F6B010E7E6F816B500E806F010E24
:103C7000836F2C0E826F75C177F174C176F177C1B5
:103C800085F176C184F1866F000152DD02C079F1C1
:103C900001C078F101017851791156E078C1E9FF4E
:103CA00079C1EAFFEF6A782BD8B4792B79C185F115
:103CB00078C184F12C0E866F00013ADD02C07BF1E1
:103CC00001C07AF101017A517B1134E07AC1E9FF38
:103CD0007BC1EAFFEF6A7A2BD8B47B2B7BC185F1DD
:103CE0007AC184F12C0E866F000122DD02C07DF1C5
:103CF00001C07CF101017C517D1112E07CC1E9FF22
:103D00007DC1EAFFEF6A7C2BD8B47D2B7DC185F1A4
:103D10007CC184F1000159DD02C083F101C082F150
:103D20007BC185F17AC184F100014FDD02C081F1D0
:103D300001C080F179C185F178C184F1000145DDD0
:103D400002C07FF101C07EF177C185F176C184F1B7
:103D50007FC187F17EC186F181C189F180C188F17F
:103D600083C18BF182C18AF10001B7D6015066EFA1
:103D70002BF001018C51016A8B5D03E28BC100F0D5
:103D80000CD0006A080E8D6F8B3700368C51005CAA
:103D9000D8B0006E01368D2FF7D70001000C200E31
:103DA000010186A9300E876F85C100F085AF07D06D
:103DB000001E002A00C085F12D0E876F868F0150EE
:103DC00085C18BF1640E8C6F0001D3DF00C085F1DB
:103DD000300E01240101886F85C18BF10A0E8C6FB2
:103DE0000001C7DF300E002401018A6F300E01246C
:103DF000896F87C100F086A702D086AF869586B905
:103E00000BD086AF22D086B520D000C088F186B313
:103E10001CD000C089F119D0300E885D16E100C0B9
:103E200088F1200E876F86A704D08695868386AF9B
:103E30008693300E895D09E100C089F1200E886FFC
:103E400086A7F7D7869386AF869186A506D087C1C9
:103E50009BF10001A9EC18F0010186A306D088C1EE
:103E60009BF10001A9EC18F0010186A105D089C1E0
:103E70009BF10001A9EC18F08AC19BF10001A9ECAB
:103E800018F0000C010185BF12D00F0E006E8439AE
:103E900000160A0E005C03E2300E002602D08551A7
:103EA000002600C09BF10001A9EC18F001010F0EE3
:103EB00084170A0E845D02E2300E02D0859F855180
:103EC000842784C19BF10001A9EC18F0000C010EBD
:103ED0000101756F036A7551670FE96E010E0320CA
:103EE000EA6EEF50030BEF6E036A7551690FE96ECE
:103EF000010E0320EA6EEF50030BEF6E036A75515B
:103F0000690FE96E010E0320EA6E7435006E00360B
:103F1000FC0E00160050FC0BEF10EF6E0001AA53D0
:103F20006AE0036A01017551690FE96E010E032011
:103F3000EA6EEFCF76F1580EF66E2B0EF76E100E7E
:103F4000926F00013ADD75C185F11F0E0101866F88
:103F5000000125DF6A0EF66E2B0EF76E040E0101CE
:103F6000926F00012ADD76C184F1370E0101856F61
:103F7000000188DF0D0E01019B6F0001A9EC18F014
:103F80000A0E01019B6F0001A9EC18F0036A010100
:103F90007551670FE96E010E0320EA6EEFCF76F1DF
:103FA000760EF66E2B0EF76E110E926F000105DD88
:103FB00075C185F11F0E0101866F0001F0DE890ECB
:103FC000F66E2B0EF76E040E0101926F0001F5DC08
:103FD00076C184F1370E0101856F000153DF0D0EAC
:103FE00001019B6F0001A9EC18F00A0E01019B6F03
:103FF0000001A9EC18F09388020E006E002EFED787
:10400000938A020E006E002EFED78A989398020EB5
:10401000006E002EFED78A9A939A4E0E0101A06F71
:104020000001FAEC17F0060E01017525766FA06FFE
:104030000001FAEC17F0036A01017551670FE96E90
:10404000010E0320EA6EEFCF76F176C1A0F10001F8
:10405000FAEC17F093980000938A81AAFED7020E1B
:10406000006E002EFED700D000009388020E006E76
:10407000002EFED7036A01017551690F016E010E12
:10408000032201C0E9FF03C0EAFFEF9E9388020EFE
:10409000006E002EFED7938A020E006E002EFED711
:1040A0008A989398020E006E002EFED78A9A939AF1
:1040B0004E0EA06F0001FAEC17F0020E01017525FB
:1040C000766FA06F0001FAEC17F0036A01017551D9
:1040D000690FE96E010E0320EA6EEFCF76F176C12B
:1040E000A0F10001FAEC17F093980000938A81AADE
:1040F000FED7020E006E002EFED700D0000093887F
:10410000020E006E002EFED7010E0101936F00011A
:1041100001EC17F0036A01017551690F016E010E80
:10412000032201C0E9FF03C0EAFFEF8E9388020E6D
:10413000006E002EFED7938A020E006E002EFED770
:104140008A989398020E006E002EFED78A9A939A50
:104150004E0EA06F0001FAEC17F0020E010175255A
:10416000766FA06F0001FAEC17F0036A0101755138
:10417000690FE96E010E0320EA6EEFCF76F176C18A
:10418000A0F10001FAEC17F093980000938A81AA3D
:10419000FED7020E006E002EFED700D000009388DE
:1041A000020E006E002EFED7010E0101936F00017A
:1041B00001EC17F0036A01017551690F016E010EE0
:1041C000032201C0E9FF03C0EAFFEF9E9388020EBD
:1041D000006E002EFED7938A020E006E002EFED7D0
:1041E0008A989398020E006E002EFED78A9A939AB0
:1041F0004E0EA06F0001FAEC17F0020E01017525BA
:10420000766FA06F0001FAEC17F0036A0101755197
:10421000690FE96E010E0320EA6EEFCF76F176C1E9
:10422000A0F10001FAEC17F093980000938A81AA9C
:10423000FED7020E006E002EFED700D0000093883D
:10424000020E006E002EFED7010E0101936F0001D9
:1042500001EC17F0036A01017551670FE96E010E59
:104260000320EA6EEF50FC09EF6E9388020E006E99
:10427000002EFED7938A020E006E002EFED78A987B
:104280009398020E006E002EFED78A9A939A4E0ED5
:10429000A06F0001FAEC17F0060E01017525766F8C
:1042A000A06F0001FAEC17F0036A01017551670F66
:1042B000E96E010E0320EA6EEFCF76F176C1A0F130
:1042C0000001FAEC17F093980000938A81AAFED7B8
:1042D000020E006E002EFED700D000009388020E62
:1042E000006E002EFED782EF2BF0020E0101752525
:1042F000786F000E7621796F856F78C184F10001A7
:10430000E5EC1BF001C077F1010175C1E9FF76C151
:10431000EAFFEF505208D8A4C3D0010E7525E96E0C
:10432000000E7621EA6EEF5042081DE17751060A31
:10433000000103E0010A09E011D00101745302E118
:104340008A9C01D08A8C939C0DD00101745302E1A8
:104350008A9E01D08A8E939E05D00001000E016EC8
:10436000C0D001019CD0010E7525E96E000E7621AA
:10437000EA6EEF50430831E17751000A000107E08F
:10438000010A0DE0070A13E0010A19E021D001013A
:10439000745302E18B9001D08B8094901DD0010169
:1043A000745302E18B9201D08B82949215D001015B
:1043B000745302E18B9C01D08B8C949C0DD0010135
:1043C000745302E18B9E01D08B8E949E05D0000128
:1043D000000E016E86D0010162D0010E7525E96ED6
:1043E000000E7621EA6EEF504408D8A458D07751D9
:1043F000000A00010FE0010A15E0030A1BE0010AB0
:1044000021E0070A27E0010A2DE0030A33E0010A50
:1044100039E041D00101745302E18C9001D08C80CD
:1044200095903DD00101745302E18C9201D08C82B1
:10443000959235D00101745302E18C9401D08C84A3
:1044400095942DD00101745302E18C9601D08C8695
:10445000959625D00101745302E18C9801D08C8887
:1044600095981DD00101745302E18C9A01D08C8A79
:10447000959A15D00101745302E18C9C01D08C8C6B
:10448000959C0DD00101745302E18C9E01D08C8E5D
:10449000959E05D00001000E016E23D001011FD0B2
:1044A00075C1E9FF76C1EAFFEF50530818E1010E2C
:1044B0007525E96E000E7621EA6EEF5057080FE180
:1044C00077510F0804E2000E016E00010AD077C197
:1044D00099F174C19AF1000111EC1AF00101010E79
:1044E000016E0001000C080E01017C6F00C07DF11F
:1044F0009388020E006E002EFED7938A81AAFED703
:1045000081B8D88081A8D8900136020E006E002EA6
:10451000FED7939A8A9A7C2FEBD79388020E006E6F
:10452000002EFED78A987D51D8A493980000938AD4
:1045300081AAFED7020E006E002EFED78A9A939AA9
:10454000020E006E002EFED78A9893980001000C90
:104550000101786B776B7A6B9388020E006E002EE8
:10456000FED7938A020E006E002EFED78A9893988B
:10457000020E006E002EFED78A9A939A4E0EA06FFE
:104580000001FAEC17F0060E0101A06F0001FAEC31
:1045900017F067C1A0F1FAEC17F068C1A0F1FAECCE
:1045A00017F093980000938A81AAFED7020E006E3E
:1045B000002EFED700D000009388020E006E002E61
:1045C000FED79388020E006E002EFED7938A020E4D
:1045D000006E002EFED78A989398020E006E002E71
:1045E000FED78A9A939A4E0E0101A06F0001FAEC51
:1045F00017F00101A06B0001FAEC17F09388020E8E
:10460000006E002EFED7938A020E006E002EFED79B
:1046100081AAFED78A989398020E006E002EFED7CC
:104620008A9A939A4F0E0101A06F0001FAEC17F0DD
:10463000010E006E58DF01C079F1010E006E53DFEC
:1046400001C07AF193980000938A81AAFED7020EE6
:10465000006E002EFED700D000009388020E006E80
:10466000002EFED70101786B7AC177F177C178F11E
:10467000776B7951771377C101F078C102F00001AF
:104680007EEF25F00101786B7731796F79337933DB
:104690001F0E79177751070B7A6F036A7951670FED
:1046A000016E010E032201C0E9FF03C0EAFF010E03
:1046B000006E7A51016E04E0D8900036012EFCD7CE
:1046C0000050EF129388020E006E002EFED7938AE0
:1046D000020E006E002EFED78A989398020E006E8E
:1046E000002EFED78A9A939A4E0EA06F0001FAEC24
:1046F00017F0060E010179257B6FA06F0001FAEC1F
:1047000017F0036A01017951670FE96E010E03206A
:10471000EA6EEFCF7BF17BC1A0F10001FAEC17F05C
:1047200093980000938A81AAFED7020E006E002E95
:10473000FED700D000009388020E006E002EFED738
:104740009388020E006E002EFED7938A020E006E32
:10475000002EFED78A989398020E006E002EFED788
:104760008A9A939A4E0E0101A06F0001FAEC17F09D
:1047700079C1A0F1FAEC17F09388020E006E002EBA
:10478000FED7938A020E006E002EFED781AAFED7B6
:104790008A989398020E006E002EFED78A9A939AFA
:1047A0004F0E0101A06F0001FAEC17F0010E006E30
:1047B0009ADE01C078F193980000938A81AAFED70F
:1047C000020E006E002EFED700D000009388020E6D
:1047D000006E002EFED778C100F001017A51016E03
:1047E00004E0D8900032012EFCD7000E00B0010E7C
:1047F000016E000190EF25F0020E01017425776F24
:10480000000E7521786F856F77C184F10001E5ECAA
:104810001BF001C076F1010174C1E9FF75C1EAFF27
:10482000EF505208D8A44FD1010E7425E96E000E46
:104830007521EA6EEF504208D8A46AD07651000A7A
:1048400000010FE0010A17E0030A1FE0010A27E058
:10485000070A2FE0010A37E0030A3FE0010A47E0B8
:1048600050D09380000E81B0010E036A016E03C028
:1048700002F060D14BD09382000E81B2010E036A28
:10488000016E03C002F056D141D09384000E81B472
:10489000010E036A016E03C002F04CD137D093863B
:1048A000000E81B6010E036A016E03C002F042D110
:1048B0002DD09388000E81B8010E036A016E03C0EB
:1048C00002F038D123D0938A000E81BA010E036A18
:1048D000016E03C002F02ED119D0938C000E81BC62
:1048E000010E036A016E03C002F024D10FD0938E33
:1048F000000E81BE010E036A016E03C002F01AD1E0
:1049000005D0020E016E000E026E14D1DAD0010144
:10491000010E7425E96E000E7521EA6EEF50430812
:104920005EE17651000A00010DE0010A15E0030A7C
:104930001DE0060A25E0010A2DE0030A35E0010A20
:104940003DE046D09480000E82B0010E036A016EF5
:1049500003C002F0EFD041D09482000E82B2010E6B
:10496000036A016E03C002F0E5D037D09484000ED4
:1049700082B4010E036A016E03C002F0DBD02DD0B9
:104980009488000E82B8010E036A016E03C002F023
:10499000D1D023D0948A000E82BA010E036A016E30
:1049A00003C002F0C7D019D0948C000E82BC010E57
:1049B000036A016E03C002F0BDD00FD0948E000ECA
:1049C00082BE010E036A016E03C002F0B3D005D0AF
:1049D000020E016E000E026EADD073D00101010E09
:1049E0007425E96E000E7521EA6EEF504408D8A4D4
:1049F00069D07651000A00010FE0010A17E0030AAE
:104A00001FE0010A27E0070A2FE0010A37E0030A46
:104A10003FE0010A47E050D09580000E83B0010EC0
:104A2000036A016E03C002F085D04BD09582000E60
:104A300083B2010E036A016E03C002F07BD041D045
:104A40009584000E83B4010E036A016E03C002F068
:104A500071D037D09586000E83B6010E036A016EC1
:104A600003C002F067D02DD09588000E83B8010EE8
:104A7000036A016E03C002F05DD023D0958A000E58
:104A800083BA010E036A016E03C002F053D019D03D
:104A9000958C000E83BC010E036A016E03C002F008
:104AA00049D00FD0958E000E83BE010E036A016EB1
:104AB00003C002F03FD005D0020E016E000E026E60
:104AC00039D0010133D074C1E9FF75C1EAFFEF505D
:104AD00053082CE1010E7425E96E000E7521EA6E73
:104AE000EF50570823E1020E7425E96E000E752180
:104AF000EA6EEF502A0806E100012AD502501AD0CA
:104B000013D0010176510F0807E2020E016E000E6C
:104B1000026E00010FD008D076C177F10001B2D546
:104B2000036A03C002F006D000D00101020E016E3C
:104B3000000E026E0001000C020E01017425776F59
:104B4000000E7521786F856F77C184F10001E5EC67
:104B50001BF001C076F1010174C1E9FF75C1EAFFE4
:104B6000EF505208D8A47FD0010E7425E96E000ED4
:104B70007521EA6EEF50410840E17651000A0001CC
:104B800009E0010A0EE0030A13E0010A18E0070A2F
:104B90001DE023D0000E016EC250C30B0110C26E87
:104BA00020D0040E016EC250C30B0110C26E19D08A
:104BB000080E016EC250C30B0110C26E12D00C0E53
:104BC000016EC250C30B0110C26E0BD0100E016EED
:104BD000C250C30B0110C26E04D0000E016E026EF3
:104BE00045D0C282C2B2FED7C4CF03F0C3CF01F01A
:104BF000C4CF02F03BD036D00101010E7425E96E1E
:104C0000000E7521EA6EEF5045082DE17651000A3D
:104C1000000105E0010A0AE0030A0FE015D0140EB6
:104C2000016EC250C30B0110C26E12D0180E016E7D
:104C3000C250C30B0110C26E0BD01C0E016EC250CD
:104C4000C30B0110C26E04D0000E016E026E0ED0B6
:104C5000C282C2B2FED7C4CF03F0C3CF01F0C4CF2B
:104C600002F004D00101000E016E026E000158EF47
:104C70002CF0EF5210E0EACF85F1E9CF84F1EFCFCD
:104C80009BF1A9EC18F085C1EAFF84C1E9FFE92A8C
:104C9000D8B4EA2AEED7000C01017E6B7F6B400E80
:104CA000806F74C1E9FF75C1EAFFEF505208D8A4C4
:104CB0004FD1010E7425E96E000E7521EA6EEF509A
:104CC0004508D8A445D1020E7425E96E000E752161
:104CD000EA6EEF504708D8A43BD1030E836F036AF6
:104CE00083517425E96E75510320EA6E036A83517E
:104CF0007425E96E75510320EA6EEF50390802E31E
:104D0000832BEDD78351030803E0835105081FE28D
:104D1000F20EF66E2B0EF76E1E0E926F0001DDEC9A
:104D20001CF075C1EAFF74C1E9FFA3DF0D0E01019C
:104D30009B6F0001A9EC18F00A0E01019B6F0001A6
:104D4000A9EC18F0FF0E016EE8EF2AF00101036AEA
:104D500083517425E96E75510320EA6EEF503D08CA
:104D600060E1036A83517425E96E75510320EA6E90
:104D7000EF6A030E7425846F000E7521856F9C6F9A
:104D800084C19BF1000140EC19F001C081F10101E7
:104D900083517425846F000E7521856F010E842761
:104DA000000E852385C19CF184C19BF1000140EC7C
:104DB00019F001C082F1010181513F0822E2160E73
:104DC000F66E2C0EF76E200E926F0001DDEC1CF0DB
:104DD00081C184F1370E0101856F000142EC1FF0A3
:104DE0000D0E01019B6F0001A9EC18F00A0E0101E4
:104DF0009B6F0001A9EC18F0FF0E016EE8EF2AF09E
:104E00000101036A81515C25E96E5D510320EA6E60
:104E100082C1EFFF000E016E0001E8EF2AF096D08C
:104E20000101036A83517425E96E75510320EA6E0E
:104E3000EF503F086EE1036A83517425E96E7551A6
:104E40000320EA6EEF6A030E7425846F000E75214D
:104E5000856F9C6F84C19BF1000140EC19F001C08B
:104E600081F1010181513F0821E23C0EF66E2C0ECA
:104E7000F76E200E926F0001DDEC1CF081C184F111
:104E8000370E0101856F000142EC1FF00D0E01018C
:104E90009B6F0001A9EC18F00A0E01019B6F000145
:104EA000A9EC18F0FF0E016E93D30101036A815142
:104EB0005C25E96E5D510320EA6EEFCF84F14F0E61
:104EC0009B6F0001A9EC18F06B0E01019B6F0001B4
:104ED000A9EC18F0200E01019B6F0001A9EC18F05D
:104EE00084C185F11F0E0101866F0001CFEC1EF019
:104EF0000D0E01019B6F0001A9EC18F00A0E0101D3
:104F00009B6F0001A9EC18F0010E016E61D31ED059
:104F10000101620EF66E2C0EF76E150E926F0001F7
:104F2000DDEC1CF075C1EAFF74C1E9FFA2DE0D0ED5
:104F300001019B6F0001A9EC18F00A0E01019B6FA3
:104F40000001A9EC18F0FF0E016E42D33ED301011F
:104F500074C1E9FF75C1EAFFEF504908D8A4F4D045
:104F6000010E7425E96E000E7521EA6EEF504E08B1
:104F7000D8A4EAD0020E7425E96E000E7521EA6EFF
:104F8000EF505408D8A4E0D0030E7425E96E000E4B
:104F90007521EA6EEF50310867E1040E7425E96E61
:104FA000000E7521EA6EEF503F0827E14F0E9B6F10
:104FB0000001A9EC18F06B0E01019B6F0001A9EC38
:104FC00018F0200E01019B6F0001A9EC18F0010EF2
:104FD000EA6E500EE96E4DDE0D0E01019B6F000171
:104FE000A9EC18F00A0E01019B6F0001A9EC18F062
:104FF000010E016EEDD233D00101836B050E8325C6
:10500000036A7425E96E75510320EA6EEF5020089B
:1050100025E28351040822E3036A8351500F016E95
:10502000010E032203C085F1050E8325036A742552
:10503000E96E75510320EA6EEFCF86F185C1EAFF74
:1050400001C0E9FF86C1EFFF832B036A8351500F34
:10505000E96E010E0320EA6EEF6AD0D70001000E60
:10506000016EB6D26FD00101030E7425E96E000EF9
:105070007521EA6EEF50320866E1040E7425E96E80
:10508000000E7521EA6EEF503F0827E14F0E9B6F2F
:105090000001A9EC18F06B0E01019B6F0001A9EC57
:1050A00018F0200E01019B6F0001A9EC18F0010E11
:1050B000EA6E500EE96EDDDD0D0E01019B6F000101
:1050C000A9EC18F00A0E01019B6F0001A9EC18F081
:1050D000010E016E7DD233D00101836B050E832555
:1050E000036A7425E96E75510320EA6EEF502008BB
:1050F00025E28351040822E3036A8351550F016EB0
:10510000010E032203C085F1050E8325036A742571
:10511000E96E75510320EA6EEFCF86F185C1EAFF93
:1051200001C0E9FF86C1EFFF832B036A8351550F4E
:10513000E96E010E0320EA6EEF6AD0D70001000E7F
:10514000016E46D2010142D274C1E9FF75C1EAFF86
:10515000EF50540834E1010E7425E96E000E7521FC
:10516000EA6EEF5059082BE1020E7425E96E000E2D
:105170007521EA6EEF50500822E1030E7425E96EA6
:10518000000E7521EA6EEF50450819E1050E7425F1
:10519000E96E000E7521EA6EEF50310806E1010E4E
:1051A0005B6F5D6F100E5C6F04D05B6B5D6BD00E40
:1051B0005C6F000E016E00010BD207D2010174C1B9
:1051C000E9FF75C1EAFFEF5045086BE1010E742558
:1051D000E96E000E7521EA6EEF504E0862E1020E94
:1051E0007425E96E000E7521EA6EEF503F082AE142
:1051F0004F0E9B6F0001A9EC18F06B0E01019B6F25
:105200000001A9EC18F0200E01019B6F0001A9EC30
:1052100018F05AC185F11F0E0101866F0001CFEC15
:105220001EF00D0E01019B6F0001A9EC18F00A0E93
:1052300001019B6F0001A9EC18F0010E016EC8D1AD
:105240002BD00101020E7425E96E000E7521EA6E65
:10525000EF503D0820E1030E7425E96E000E752124
:10526000EA6EEF50310810E1C688C696C684C68241
:10527000C690C59EC59093CF83F183510309936E69
:10528000C68A010E5A6F07D093CF83F18351030969
:10529000936EC69A5A6B0001000E016E99D195D19A
:1052A000010174C1E9FF75C1EAFFEF504408D8A4B9
:1052B00004D1010E7425E96E000E7521EA6EEF50DF
:1052C0004208D8A4FAD0020E7425E96E000E7521AA
:1052D000EA6EEF504708D8A4F0D0605340E07C0E4F
:1052E000F66E2C0EF76E100E926F0001DDEC1CF0C6
:1052F00062C184F1370E0101856F000142EC1FF09D
:10530000280E01019B6F0001A9EC18F0300E01017D
:105310009B6F0001A9EC18F0780E01019B6F000152
:10532000A9EC18F063C184F1370E0101856F00010B
:1053300042EC1FF0290E01019B6F0001A9EC18F04F
:105340000D0E01019B6F0001A9EC18F00A0E01017E
:105350009B6F0001A9EC18F00101606B08D09C0E56
:10536000F66E2C0EF76E0001C7EC18F001016153C8
:1053700040E0AE0EF66E2C0EF76E110E926F00012D
:10538000DDEC1CF064C184F1370E0101856F000172
:1053900042EC1FF0280E01019B6F0001A9EC18F0F0
:1053A000300E01019B6F0001A9EC18F0780E01018D
:1053B0009B6F0001A9EC18F065C184F1370E010163
:1053C000856F000142EC1FF0290E01019B6F000167
:1053D000A9EC18F00D0E01019B6F0001A9EC18F06B
:1053E0000A0E01019B6F0001A9EC18F00101616B2D
:1053F00008D0CE0EF66E2C0EF76E0001C7EC18F03A
:105400000101320E936F000101EC17F0E20EF66E0F
:105410002C0EF76E140E0101926F0001DDEC1CF0F2
:10542000F0C084F1370E0101856F000142EC1FF0DE
:105430002C0E01019B6F0001A9EC18F0300E010148
:105440009B6F0001A9EC18F0780E01019B6F000121
:10545000A9EC18F0F1C084F1370E0101856F00014D
:1054600042EC1FF02C0E01019B6F0001A9EC18F01B
:10547000300E01019B6F0001A9EC18F0780E0101BC
:105480009B6F0001A9EC18F0F2C084F1370E010106
:10549000856F000142EC1FF00D0E01019B6F0001B2
:1054A000A9EC18F00A0E01019B6F0001A9EC18F09D
:1054B000000E016E8DD089D0010174C1E9FF75C164
:1054C000EAFF74C1E9FF75C1EAFFEF5039085FE3F5
:1054D00075C177F174C176F177C185F176C184F138
:1054E0002C0E866F000198EC1BF002C079F101C010
:1054F00078F101017851791133E078C1E9FF79C180
:10550000EAFFEF6A782BD8B4792B79C185F178C19D
:1055100084F12C0E866F000198EC1BF002C07BF129
:1055200001C07AF101017A517B1111E07AC1E9FFE2
:105530007BC1EAFFEF6A7A2BD8B47B2B7BC19CF14D
:105540007AC19BF1000140EC19F001C080F179C1F2
:105550009CF178C19BF1000140EC19F001C07FF192
:1055600077C19CF176C19BF1000140EC19F001C0BC
:105570007EF17EC1F9F07FC1FBF080C1FDF07EC1FC
:1055800025F17FC126F180C127F11FD001010C0E4A
:10559000F66E2D0EF76E150E926F0001DDEC1CF00D
:1055A00075C1EAFF74C1E9FF39EC26F00D0E010167
:1055B0009B6F0001A9EC18F00A0E01019B6F00011E
:1055C000A9EC18F0FF0E016E03D00101000E016E70
:1055D000000135EF2DF0A8EF17F001C06FF10101C8
:1055E0006F5107080DE10001EFEF17F035EF18F0EC
:1055F000260EF66E2D0EF76EC7EC18F065D201017F
:105600006F5315E13C0EF66E2A0EF76E0001C7ECE3
:1056100018F00D0E01019B6F0001A9EC18F00A0EA5
:1056200001019B6F0001A9EC18F04ED201016F2D12
:105630001FD0FF0EA96E010EA86EA69CA69EA68482
:10564000F250006EF29E0F01550EA76EAA0EA76EC5
:10565000A682A6B2FED7A6940050F2122C0EF66EC9
:105660002D0EF76E0001C7EC18F0FF002DD20101DE
:105670006F5102080FE1936B8C0E926F946B0001D7
:10568000F0EC1AF0320EF66E2D0EF76EC7EC18F035
:105690001BD201016F51030810E1936B8C0E926FC6
:1056A000010E946F0001F0EC1AF0380EF66E2D0E1C
:1056B000F76EC7EC18F008D201016F5104080EE133
:1056C000756B8C0E746F000130EF1EF03E0EF66E9F
:1056D0002D0EF76EC7EC18F0F7D101016F510508D8
:1056E00042E19C6B8C0E9B6F000140EC19F0036A49
:1056F00001C070F1010103C071F170C174F10001CA
:1057000067EF1FF0AA5327E04F0E01019B6F0001C6
:10571000A9EC18F04B0E01019B6F0001A9EC18F0E9
:10572000200E01019B6F0001A9EC18F0100EE96E2C
:1057300071C193F170C192F1F2EC1CF00D0E0101F8
:105740009B6F0001A9EC18F00A0E01019B6F00018C
:10575000A9EC18F006D0440EF66E2D0EF76EC7ECCD
:1057600018F0B2D101016F510D0819E1010E746FEB
:10577000766B8C0E756F000175EC21F0015207E01D
:105780004A0EF66E2D0EF76EC7EC18F006D0540ECA
:10579000F66E2D0EF76EC7EC18F096D101016F5121
:1057A0000C0818E1746B766B8C0E756F000175EC4C
:1057B00021F0015207E0720EF66E2D0EF76EC7EC67
:1057C00018F006D07C0EF66E2D0EF76EC7EC18F0B2
:1057D0007BD101016F510E0862E1756B8C0E746F05
:1057E0000001FCEC23F002C071F101C070F1010175
:1057F000705315E1715313E1300E9B6F0001A9EC5A
:1058000018F00D0E01019B6F0001A9EC18F00A0EB3
:1058100001019B6F0001A9EC18F03FD00101702D30
:1058200015D0715313E1310E9B6F0001A9EC18F0F4
:105830000D0E01019B6F0001A9EC18F00A0E010189
:105840009B6F0001A9EC18F028D00101300E9B6F6E
:105850000001A9EC18F0780E01019B6F0001A9EC82
:1058600018F071C184F1370E0101856F000142EC1F
:105870001FF070C184F1370E0101856F000142EC09
:105880001FF00D0E01019B6F0001A9EC18F00A0E2C
:1058900001019B6F0001A9EC18F016D101016F51B5
:1058A000060820E1756B8C0E746F00019CEF25F0EB
:1058B00002C071F101C070F1100EE96E71C193F177
:1058C00070C192F1F2EC1CF00D0E01019B6F000112
:1058D000A9EC18F00A0E01019B6F0001A9EC18F069
:1058E000F3D001016F5112081FE100018C514F08E4
:1058F0000CE18D514E0809E1010EAA6F9A0EF66E69
:105900002D0EF76EC7EC18F007D0AA6BA60EF66E38
:105910002D0EF76EC7EC18F0B20EF66E2D0EF76E68
:10592000C7EC18F0D1D001016F511308D8A4A6D04C
:1059300000018C513F08D8A491D04F0E01019B6FFC
:105940000001A9EC18F06B0E01019B6F0001A9EC9E
:1059500018F0200E01019B6F0001A9EC18F0F0C0B7
:1059600084F1370E0101856F000142EC1FF02C0E0F
:1059700001019B6F0001A9EC18F0F1C084F1370E12
:105980000101856F000142EC1FF02C0E01019B6F9D
:105990000001A9EC18F0F2C084F1370E0101856F07
:1059A000000142EC1FF02C0E01019B6F0001A9ECDD
:1059B00018F0F9C084F1370E0101856F000142EC47
:1059C0001FF02C0E01019B6F0001A9EC18F0FBC029
:1059D00084F1370E0101856F000142EC1FF02C0E9F
:1059E00001019B6F0001A9EC18F0FDC084F1370E96
:1059F0000101856F000142EC1FF0CC0EF66E2D0EFA
:105A0000F76E090E0101926F0001DDEC1CF0CFC0B2
:105A100084F1370E0101856F000142EC1FF0D70EB3
:105A2000F66E2D0EF76E0C0E0101926F0001DDEC8B
:105A30001CF0100EE96E5FC193F15EC192F1F2ECC1
:105A40001CF00D0E01019B6F0001A9EC18F00A0E6D
:105A500001019B6F0001A9EC18F00FD00101756BDB
:105A60008C0E746F00014CEF26F0015206E1EA0E35
:105A7000F66E2D0EF76EC7EC18F026D00001A85375
:105A800023E0036AA851880FE96E000E0320EA6E36
:105A9000EF6AF00EF66E2D0EF76E0C0E0101926F8E
:105AA0000001DDEC1CF0EA6A880EE96E39EC26F0A4
:105AB0000D0E01019B6F0001A9EC18F00A0E010107
:105AC0009B6F0001A9EC18F0A86BE7EF2EF0F86AC5
:105AD000D09E0E8EEA6AE96A938293803A0EC86E6F
:105AE000360EC66E096A276A7A6B816BA86BAA6B41
:105AF000AC6B0A0EAB6FC80EAD6FAE6BCF6B010E09
:105B000001015A6F5B6B5D6BD00E5C6F5F6B5E6B00
:105B1000606B616B626B636B646B656B030E666FCE
:105B2000C150C00B0F09C16E070EB46E216A040E7E
:105B3000226E100E236E0001826B836BD06BD16BD3
:105B4000D26BD36BD46BD56BD66BD76BD86BD96B51
:105B5000DA6BDB6BDC6BDD6BDE6B3B0EDF6F200E1D
:105B6000E06F8B0EE16FA70EE26F120EE36F130E64
:105B7000E46F030EE56F110EE66F830EE76FE86BBF
:105B8000D30EE96F0C0EEA6F010EEB6FEC6BED6B51
:105B9000EE6BEF6B400EF06FF16BF26BF36BF46B2F
:105BA000F56BF66B0F0EF76FF86BF96BFA6BFB6B1F
:105BB000FC6BC40EFD6FFE6BFF6B0101006B016B94
:105BC000026B036B046B056B066B076B086B096B51
:105BD0000A6B0B6B0C6B0D6B0E6B0F6B106B116B01
:105BE000126B136B146B156B166B176B186B196BB1
:105BF0001A6B1B6B1C6B1D6B1E6B4A0E1F6F206B91
:105C0000216B226B120E236F130E246F030E256F70
:105C1000110E266F830E276F286BD30E296F0C0E83
:105C20002A6F010E2B6F2C6B2D6B2E6B2F6B400E82
:105C3000306F316B326B336B346B356B366B0F0EF1
:105C4000376F386B396B3A6B3B6B3C6BC40E3D6FF7
:105C50003E6B3F6B406B416B426B436B446B456BE0
:105C6000466B476B486B496B4A6B4B6B4C6B4D6B90
:105C70004E6B4F6B530E506F570E516F360E526F67
:105C8000536B530E556F570E566F370E576F586B39
:105C9000FF0E676F686F696F6A6F0A6A0001A86B11
:105CA0006F886F84C69A01015A6B5B6BC150C00B41
:105CB0000709C16EC080C082C084C08EC280D190EE
:105CC000800ED56ECD6A950EB16E070EB46E9250F1
:105CD000926E270E006E002EFED700D0B450A19C0D
:105CE000B56AD26AD36AD350E80EB36E970EB26E1D
:105CF000A0829D86C00EF212C80E0001AD6F949472
:105D00008B940101936F000101EC17F0FF0EA96E57
:105D1000A86AA69CA69EA684F250006EF29E0F0171
:105D2000550EA76EAA0EA76EA682A6B2FED7A6949F
:105D30000050F212000150EF17F0AF51AA0803E132
:105D4000B05155082FE0550EB06FAA0EAF6FC46B5F
:105D5000C36BB66B280EB56FA90EB46F4D0EB36F43
:105D6000240EB26F7D0EB16FCB0EBA6FBE0EB96F3F
:105D70007F0EB86F7E0EB76F280EBE6F610EBD6FBF
:105D8000BC6B7F0EBB6F8E0EC26F590EC16FC06BA6
:105D90007F0EBF6FC86BC76BC66BC56FE80ECE6F4B
:105DA000970ECD6F94928B8201016B6BFF0E6C6F1F
:105DB0000001AD5303E094948B8402D094948B94AF
:105DC0007BA102D077EF17F0A95304E004D4A96BAC
:105DD000280EAD6F01015A5348E05B5328E10001E2
:105DE000F2A523D0AC530DE1AB5101080AE3010148
:105DF000746B010E766F500E756F000175EC21F01B
:105E000014D0F2AD09D0010E0101756F500E746F00
:105E10000001FCEC23F009D0010E0101746F766FD4
:105E2000500E756F000175EC21F01ED001015B2D45
:105E30001CD022AD1AD00001AC530DE1AB510108CA
:105E40000AE30101746B010E766F500E756F00014D
:105E500075EC21F009D0010E0101746F766F500EC0
:0E5E6000756F000175EC21F00101A2D703005F
:020000040030CA
:0E00000020CE3E1E0087A1000FC00FE00F4073
:00000001FF
;PIC18F4550
;CRC=4BE1  CREATED="19-Jul-13 21:52"
