:020000040000FA
:040000003DEF0BF0D5
:080008000A6613EF00F004EF9B
:100010000CF00000000000000A661BEF00F00CEF7F
:040020000CF0000CD4
:0A0026000B6ED8CF0CF0E0CF0DF008
:100030000001E9CF13F0EACF0EF0E1CF0FF0E2CFED
:1000400010F0D9CF11F0DACF12F0F3CF1AF0F4CFCD
:100050001BF0FACF1CF000C015F001C016F002C072
:1000600017F003C018F004C019F0A0AA3BEF00F08D
:10007000A1BADCEF07F015C000F016C001F017C000
:1000800002F018C003F019C004F0148E13C0E9FF89
:100090000EC0EAFF0FC0E1FF10C0E2FF11C0D9FFA0
:1000A00012C0DAFF1AC0F3FF1BC0F4FF1CC0FAFF36
:1000B0000B500DC0E0FF0CC0D8FF1000F76ACC0F4A
:1000C000F66E000EF7220900F5501200040301003D
:1000D000000000000000000000000000F76AEC0FC4
:1000E000F66E000EF7220900F55012000400010020
:1000F000000000000000000000000000F76A0C0F84
:10010000F66E010EF7220900F550120040000800BB
:10011000400000000000000000000000000000009F
:10012000000000000000000000000000F76A3C0F23
:10013000F66E010EF7220900F55012004000000093
:10014000400000000000000000000000000000006F
:10015000000000000000000000000000F76A6C0FC3
:10016000F66E010EF7220900F55012000902430055
:10017000020100C03209040000010202010005244E
:1001800000100104240202052406000105240100D8
:1001900001070581030800FA09040100020A0000B2
:1001A00000070502024000FA070582024000FA003B
:1001B000F76AC00FF66E010EF7220900F550120023
:1001C0000200F76AD20FF66E010EF7220900F55011
:1001D0001200040309040C034E004F004B004900B9
:1001E00041002003420054005500530042004B00E0
:1001F0004200330020004B004200430054005200F4
:100200004C00F2CF14F0F29EF76A1C0FF66E020E4D
:10021000F7220900F55014BEF28E120045727220CA
:10022000253032580D0A0000F2CF14F0F29EF76A22
:10023000420FF66E020EF7220900F55014BEF28E40
:1002400012004F6B0D0A0000F2CF14F0F29EF76A15
:10025000620FF66E020EF7220900F55014BEF28E00
:100260001200425455534220426F6F746C6F6164A8
:1002700065722056312E300D0A006D926994689493
:10028000E7EF07F06A6A6892F0EF07F03F6A3E6AAC
:10029000250E3D6E800E3C6E406A416A080E426E2D
:1002A000D26BD191446A436A8D6BCE6BCF6B000CDD
:1002B0000101836B835101080AE3036A83513A0FFA
:1002C000E96E000E0320EA6EEF6A832BF3D700017C
:1002D000DDDF066A010E076E056A000C010E0101E2
:1002E000896F89510F080EE3700E8925016E0F0E7C
:1002F000036ED8B0032A01C0E9FF03C0EAFFEF6A2A
:10030000892BEFD7206A1F6A0001000C400E040100
:10031000016F050E036F026B880E006F046B050EF4
:10032000076F400E066F0001000C6A6A686A9F0E34
:100330006B6E390E696E6E6ABBDFD0DF160E706EA3
:1003400068A602D06896FCD76D98E0DF030E096EB0
:10035000F6EF07F0698468986D82FCEF07F0689CFF
:1003600002EF08F070A002D0D1DF7090689A08EF19
:1003700008F087C121F0000CFF0E216E000C010176
:10038000856B39523DE085513F083AE30850000142
:1003900005E0020A0FE0010A19E024D0036A385090
:1003A000F2CF87F1F29EDADE010187BFF28E866F0F
:1003B000000118D0036A3850F2CF87F1F29E01DFB6
:1003C000010187BFF28E866F00010CD0036A38509E
:1003D000220FE96E000E0320EA6EEFCF86F10101D5
:1003E000000100D0382A390601018551852B036AA6
:1003F000400FE96E050E0320EA6E86C1EFFFC1D7FC
:10040000395204E18551400801E0056A85C187F150
:100410000001AFDF000C386A086A05010351010AC8
:10042000000105E0030A08E0010A09E021D0120EEC
:10043000396E030E086E1ED0430E396E1BD0020EAD
:10044000086E036A05010251340FE96E000E0320A5
:10045000EA6EEFCF38F0036A3850F2CF84F1F29EA3
:100460000001AFDE010184BFF28E396E000102D0BF
:1004700083DF0CD00501075305E13950065D02E228
:1004800006C539F0010E056E000179DF6FEF03F04C
:100490000101845306E1040E096E00011FDFC4D080
:1004A0000101050E096E876F800E866F010E856F44
:1004B00085510F08D8A0B8D0886B036A8551F2CF58
:1004C00089F1F29E00010ADE010189BFF28E000A65
:1004D0004BE0040E886F8551080DF350010F016E3B
:1004E000040E036ED8B0032A01C0E9FF03C0EAFF7F
:1004F000D8908535036AF2CF8BF1F29E000116DEAB
:100500000900F5CF03F001018BBFF28EEF6E85512C
:10051000080DF350020F016E040E036ED8B0032ACB
:1005200001C0E9FF03C0EAFF87C1ECFFED5286C1BD
:10053000EFFFD8908535036AF2CF89F1F29E000172
:10054000F5DD0900F5CF03F0010189BFF28E8627A2
:10055000035087238551080DF3CF01F0040E01C02D
:10056000E9FFEA6E880EEF6E036A8551F2CF89F1DA
:10057000F29E0001A3DD010189BFF28E000A33E083
:1005800088838551080DF350060F016E040E036E2B
:10059000D8B0032A01C0E9FF03C0EAFF87C1ECFF1E
:1005A000ED5286C1EFFFD8908535036AF2CF89F10D
:1005B000F29E0001A3DD0900F5CF03F0010189BF20
:1005C000F28E8627035087238551080DF350040FC0
:1005D000016E040E036ED8B0032A01C0E9FF03C008
:1005E000EAFF400EEF6E8851060802E10E0E886F9A
:1005F000036A8551F2CF89F1F29E00015FDD0101AE
:1006000089BFF28E020801E08889700E8525016E8F
:100610000F0E036ED8B0032A01C0E9FF03C0EAFF42
:1006200088C1EFFF852B44D7000167EF03F0050178
:10063000015100010DE0010A15E0020A20E0060A5E
:100640002AE0030A31E00E0A30E0010A36E045D024
:1006500007C040F50501416B020E0101876F0001E3
:1006600088DE3DD00501022D07D0010E07160101DD
:10067000876B00017EDE02D000017EDE30D00501F6
:10068000022D06D007820101876B000172DE02D0C5
:10069000000172DE24D0020E056E02C537F00101A2
:1006A000876B000166DE1BD0B6D606C040F5010E92
:1006B0000101876F00015DDE12D0050102510108C2
:1006C0000AE302C506F002C584F10001E1D601018A
:1006D000876B00014EDE000102D04EDE00D007EF36
:1006E00005F006C084F105010151000105E00A0A88
:1006F0000CE0010A31E045D00501406B416B020E70
:100700000101876F000135DE3ED00101845321E0F5
:10071000010E845D036AF2CF86F1F29E000148DD8E
:10072000010186BFF28E016E0501045DD8A002D0E2
:1007300001010FD0036A04513A0FE96E000E032045
:10074000EA6EEFCF40F5010E0101876F000111DE67
:1007500002D0000111DE17D0010184530FE0036ABB
:10076000050104513A0FE96E000E0320EA6E02C53E
:10077000EFFF0101876B0001FCDD02D00001FCDD11
:1007800002D0FADD00D007EF05F00101859184BFAA
:100790008581849F85A112D0036A8451F2CF86F1AE
:1007A000F29E00018BDC010186BFF28E000A02E19D
:1007B000000E01D0010E016E12D011D0036A8451D7
:1007C000F2CF86F1F29E000189DC010186BFF28E34
:1007D000000A02E1000E01D0010E016E00D00001FE
:1007E00068EF04F00101859184BF8581849F85A114
:1007F00010D08451080DF350040F016E040E036EE7
:10080000D8B0032A01C0E9FF03C0EAFF880EEF6EEB
:1008100009D08451080DF3CF01F0040E01C0E9FFA7
:10082000EA6EEF6A000177EF04F00101859184BF61
:100830008581849F85A110D08451080DF350040F49
:10084000016E040E036ED8B0032A01C0E9FF03C095
:10085000EAFF840EEF6E0AD08451080DF3CF01F049
:10086000040E01C0E9FFEA6E840EEF6E00017FEF17
:1008700004F00101859184BF8581849F85A110D0FA
:100880008451080DF350040F016E040E036ED8B0AE
:10089000032A01C0E9FF03C0EAFFEFCF86F10AD0C7
:1008A0008451080DF3CF01F0040E01C0E9FFEA6E98
:1008B000EFCF86F186AF02D086B502D0000E01D010
:1008C000010E016E00018BEF04F004C584F15DD7C9
:1008D00001522EE005010151010A000105E0020A62
:1008E0000BE0030A11E022D004C584F17BD701019B
:1008F000876B00013EDD1CD004C584F196D7010151
:10090000876B000136DD14D00501406B416B04C5D7
:1009100084F10001AED7015203E0010E0501406FE2
:10092000020E0101876F000124DD02D025DD00D019
:1009300007EF05F0FE0E216E000C0501042D01D01D
:1009400002D004534EE1015100010BE0010A0DE019
:10095000210A1CE0010A1FE0030A30E0010A35E029
:100960003DD0010ED36FE6DF3BD0050EEA6E400EA0
:10097000E96EE26A450EE16E080E016EE6CFEEFF0B
:10098000012EFCD706C587F1F4DC2AD0020ED36F06
:10099000D181D0DF25D0050EEA6E400EE96EE26A05
:1009A0003C0EE16E070E016EE6CFEEFF012EFCD786
:1009B000070E0101876F0001DCDC12D002C5D2F006
:1009C0000101876B0001D5DC0BD002C544F003C5E3
:1009D00043F00101876B0001CCDC02D0CDDC00D0FC
:1009E0000501000107EF05F0056A050100517F0BC5
:1009F000000107E0010A06E0030A05E0230A04E01B
:100A000004D015D66ED661D798D7B6DC00D078EF73
:100A100007F00101CB51080DF3CF01F0040E01C026
:100A2000E9FFEA6EEFCFCDF1CC51020806E1CDAD82
:100A300002D0CC6B02D0010ECC6FCC51030812E176
:100A4000840ECD6FCB51080DF350040F016E040ED0
:100A5000036ED8B0032A01C0E9FF03C0EAFF840E89
:100A6000EF6E09D0CC2D03D0C80ECD6F04D0CC537F
:100A700002E1880ECD6F036A010E026ECB51006E4B
:100A800005E0D89002360336002EFBD70250FF0A4D
:100A9000006EFF0E031A00501F1603502016CB5194
:100AA000080DF350010F016E040E036ED8B0032A37
:100AB00001C0E9FF03C0EAFFD890CB35036AF2CF4B
:100AC000D0F1F29E000196EC00F00900F5CF03F0A2
:100AD0000101D0BFF28EEF6ECB51080DF3CF01F0C4
:100AE000040E01C0E9FFEA6ECDC1EFFF0001000C6A
:100AF00001018D51080DF350040F016E040E036EB9
:100B0000D8B0032A01C0E9FF03C0EAFFEFCF90F19C
:100B100090BF57D08D51080DF350050F016E040E94
:100B2000036ED8B0032A01C0E9FF03C0EAFF8EC1FB
:100B3000EFFF8F51020816E18D51080DF350040F9D
:100B4000016E040E036ED8B0032A01C0E9FF03C092
:100B5000EAFFEFCF90F190AD02D08F6B02D0010E83
:100B60008F6F13D08F51040810E18D51080DF3CF12
:100B700001F0040E01C0E9FFEA6EEFCF90F190ADF5
:100B800003D0010E8F6F01D08F6B8F2D03D0C80E55
:100B9000906F04D08F5302E1880E906F8D51080D35
:100BA000F350040F016E040E036ED8B0032A01C087
:100BB000E9FF03C0EAFF90C1EFFF010E016E03D011
:100BC00000D0000E016E0001000CD351010A03E0B9
:100BD000030A14E026D0EA6A450EE96E050EE26EBD
:100BE000E16A080E016EE6CFEEFF012EFCD701018F
:100BF000876B0001B9EC01F0D36B15D0EA6A3C0EAB
:100C0000E96E050EE26EE16A070E016EE6CFEEFFB9
:100C1000012EFCD7D36B0101876B0001B9EC01F009
:100C200002D0D36B00D0AFEF06F00101CB51080D1D
:100C3000F350020F016E040E036ED8B0032A01C0F8
:100C4000E9FF03C0EAFFECCF03F0ED52EFCFCFF1A5
:100C500003C0D0F1CB51080DF350010F016E040E0B
:100C6000036ED8B0032A01C0E9FF03C0EAFFEFCF4B
:100C7000D1F1CE51D15D02E2D1C1CEF1D16BCE51D5
:100C8000D15D14E2CFC1E9FFD0C1EAFFEFCFD4F1CB
:100C9000CDC1EAFFCCC1E9FFD4C1EFFFCC2BD8B462
:100CA000CD2BCF2BD8B4D02BD12BE9D7CEC101F08F
:100CB000000164EF06F0C7C1CBF1C9C1CDF1C8C1D5
:100CC000CCF1CAC1CEF1B1D701C0CAF1C7C1CBF1D5
:100CD000020E0101CC6F00019CDE0101CAC101F0CE
:100CE00000017EEF06F0020E0101C76F010EC96F11
:100CF000850EC86F400ECA6F0001DDD701C0C6F176
:100D00000101C56BC651C55D22E20001CE51CE2B5B
:100D1000036A8E0F016E000E0322010103C0C9F1A8
:100D2000036AC551850FE96E010E0320EA6EEFCF0D
:100D3000CAF1C9C1EAFF01C0E9FFCAC1EFFF000162
:100D4000CE513F0801E2CE6B0101C52BDBD700017C
:100D5000B6EF06F00101845304E1000136D717D045
:100D600001018451020804E10001BDD710D0010146
:100D7000036A010E026E8451006E05E0D8900236BF
:100D80000336002EFBD702501F1203502012000121
:100D9000000C85C16EFF0101855303E0040E096E4E
:100DA00002D0020E096E0001DBEF06F0066A056A4A
:100DB00037C085F1EED75DEF07F001018551080DD1
:100DC000F350040F016E040E036ED8B0032A01C065
:100DD000E9FF03C0EAFFEFCF8DF18DBF38D0855119
:100DE000080DF350060F016E040E036ED8B0032AEF
:100DF00001C0E9FF03C0EAFFECCF03F0ED52EFCFF3
:100E00008BF103C08CF18A6B88518A5D14E286C134
:100E1000E9FF87C1EAFFEFCF8FF18CC1EAFF8BC1F9
:100E2000E9FF8FC1EFFF8B2BD8B48C2B862BD8B466
:100E3000872B8A2BE9D785C18DF188C18EF189C1B5
:100E40008FF1000155DE015004D000D00101000EE9
:100E5000016E0001000C8DC0D0F0020E0101856F03
:100E6000876B4D0E866F8DC088F1020E896F000171
:100E7000A4DF8D6B000C8D5302E0EDDF0DD0D0515F
:100E800040080AE1D06B020E0101856F876B866B0B
:100E9000886B896F000191DF64EF07F001018453D3
:100EA0000EE1052C05D00001BFEC01F006D00101D8
:100EB0000550020803E1000179D7010106D08451F1
:100EC000020803E10001D7D701010001000C6C30DA
:100ED0000101836F833383331F0E83176C5244E108
:100EE000040100513C0B340820E1046B00017CD567
:100EF000213C07D00101CB6B030ECC6F000189DDD3
:100F000011D00101CB6B020ECC6F000182DD2150AC
:100F1000FE0808E001018D6B21C08EF1040E8F6F79
:100F20000001E6DD6D981DD0040100513C0B040862
:100F300019E10101846B00010DDF0101CB6B020E91
:100F4000CC6F000166DD2150FE080BE0213C01D092
:100F500008D001018D6B21C08EF1010E8F6F000151
:100F6000C7DD040126D001016C50040815E1FF0E15
:100F7000216E846B000192DF213C01D009D0010178
:100F80008D6B21C08EF1020E8F6F0001B1DD02D09A
:100F900086EC01F00DD001016CB406D083C184F160
:100FA0000001D8DE05D0010183C184F1000176DFA4
:100FB000040100010DEF08F0095201E12FD0685241
:100FC0002DE068A404D069A402D03DEF01F06DA229
:100FD00001D024D068A204D069A202D042EF01F06F
:100FE00068A004D069A002D095EF01F068A804D0F1
:100FF00069A802D0AAEF01F068AC04D069AC02D0B5
:10100000AFEF01F068AA04D069AA02D0B2EF01F0F4
:1010100068A604D069A602D05AD76896A19A3BEF79
:1010200000F0010EEA6E620EE96EEF500EE00F0E58
:10103000016E006A002EFED7012EFBD78F0E006EC8
:10104000002EFED70000EF2EF2D7000C140E6F6EAC
:101050006C6A096A1E6AF2BE1E8EF29E58EC01F09E
:101060001EBEF28E206A1F6A50EF08F06D6A696A30
:101070006D86010E096E40EF08F06DB601D0F6D70F
:10108000092C0BD06DBA09D0686A696AA08AC00EB3
:10109000F212110E696E020E096E51EF08F0D6D7EA
:1010A000ECD709500208FCE18EEF0BF001017551FD
:1010B000080DF350040F016E040E036ED8B0032A1E
:1010C00001C0E9FF03C0EAFFEFCF76F176BF03D09E
:1010D000010E016E02D0000E016E00018CEF08F0CF
:1010E00001017491F2BE7481F29E00018D513F089E
:1010F00001E28D6B8D518D2B036A4D0FE96E000E51
:101100000320EA6E73C1EFFFF29E010174B1F28E0B
:10111000020E756F0001CAD7015207E01E6AF2BEC7
:101120001E8EF29E98DE1EBEF28E9EEF08F08D514E
:101130003F0801E2FCD772C173F1D2D7000CCF5146
:10114000CE5D01E1FCD7CF51CF2B036A8E0FE96E44
:10115000000E0320EA6EEFCF6FF101010001CF51C5
:101160003F0801E2CF6B01016FC101F0000187EF81
:1011700009F00101796B7A6B7A51010829E378C192
:1011800003F077C1E9FF78C1EAFFEF5040080EE2B3
:101190007951100DF3CF7BF177C1E9FF78C1EAFFF8
:1011A000EF507B25BF0F0A0F796F0CD07951100DCE
:1011B000F3CF7BF177C1E9FF78C1EAFFEF507B25E0
:1011C000D00F796F7A517A2B772BD8B4782BD4D76C
:1011D00079C101F00001000C010171BF11D00F0EA7
:1011E000006E703900160A0E005C03E2300E002615
:1011F00002D07151002600C072F1000198DF010198
:101200000F0E70170A0E705D02E2300E02D0719F51
:101210007151702770C172F1000189DF2AEF0AF065
:101220005EC172F15DC171F15CC170F15BC16FF1C2
:1012300071C1F8FF010170C1F7FF6FC1F6FFA68E03
:10124000A69CA684A688F29CF29EF2BEFDD7550EFF
:10125000A76EAA0EA76EA682776B775101082FE3BF
:10126000786B78511F080EE374C103F07351732B30
:10127000D8B4742BE96E03C0EAFFEFCFF5FF0D0081
:10128000782BEFD771C1F8FF70C1F7FF6FC1F6FF80
:10129000200E6F27000E702371237223F29CF29EA2
:1012A000F2BEFDD7A68EA69CA684550EA76EAA0EEA
:1012B000A76EA682C00EF212A694772BCED7C00ED0
:1012C000F2120001000C0101706703D0716702D0B7
:1012D00007D0712B6FC1EEFF702FFCD7712FFAD79B
:1012E0000001B7EF0AF00101656B666B6C6B5E6B1A
:1012F0005D6B180E5C6F5B6B6C53D8A4BBD10001A7
:10130000DA6B94948B94CF51CE5DFDE018D701C079
:101310006BF101016B510D0803E06B510A0801E10B
:101320000FD00001DA51DA2B036ADB0FE96E000EF1
:101330000320EA6E6BC1EFFFDA514008E4E20101DD
:10134000036A0001DA51DB0FE96E000E0320EA6E3A
:10135000EF6A94948B84DB513A082BE10101786B9E
:10136000DC0E776F000105DF01C06EF10101786BC3
:10137000DE0E776F0001FDDE01C06FF10101786BB9
:10138000E00E776F0001F5DE6FC164F101C063F11B
:101390000101786BE20E776F0001EBDE01C062F1B4
:1013A00065C169F166C16AF163C167F164C168F141
:1013B00002D00101A1D70101622D04D06E5302E1D8
:1013C000010E6C6F616B010E6D6F020E0001DA5D34
:1013D00001016D5D12E2036A6D51DB0F6F6F000E4C
:1013E0000320706F786F6FC177F10001C2DE01508A
:1013F00001016127020E6D27E8D7FF0ED8806155E5
:10140000010F616F020E0001DA5D036ADB0F01015B
:10141000706F000E0320716F786F70C177F100015B
:10142000A8DE01500101615D21E06F6B6F51000189
:1014300001EC01F001016F2B006E726F000177DE8D
:10144000040E01016F5DF2E161C170F1370E716F41
:101450000001C2D60D0E0101726F000168DE0A0E96
:101460000101726F000163DE03D101016253D8A450
:10147000BCD06653D8A4B9D065510108D8A0B5D066
:10148000400E5B25006E000E5C21016E000E5D219A
:10149000026E000E5E21036E6A51035C40E30BE1B5
:1014A0006951025C3CE307E16851015C38E303E108
:1014B0000050675D34E25B51675D5F6F5C51685956
:1014C000606F6D6B6E516D5D29E260C103F05F511D
:1014D0005F2BD8B4602B6F6F03C070F11B0E6F25AC
:1014E000016E010E0320036E01C071F1726FD8907E
:1014F0006D35090F036ADB0F756F000E0320766FE1
:10150000786F75C177F1000134DE72C1EAFF71C1F5
:10151000E9FF01C0EFFF01016D2BD4D765D05F5308
:1015200002E1605319E05E5305E15D5303E15C5154
:10153000170812E25EC172F15DC171F15CC170F118
:101540005BC16FF1010E746F1B0E736F766B400EF3
:10155000756F000165DE0101010EEA6E1B0EE96E7A
:10156000FF0E6F6F716B400E706F0001ACD6010102
:101570006751C00B5B6F68C15CF169C15DF16AC105
:101580005EF15B51675D5F6F5C516859606F6D6BB9
:101590006E516D5D29E260C103F05F515F2BD8B4DD
:1015A000602B6F6F03C070F11B0E6F25016E010E73
:1015B0000320036E01C071F1726FD8906D35090F71
:1015C000036ADB0F756F000E0320766F786F75C1AD
:1015D00077F10001CEDD72C1EAFF71C1E9FF01C000
:1015E000EFFF01016D2BD4D715D06251040812E131
:1015F000786BE40E776F0001BCDD01C06FF1010173
:10160000786BE60E776F0001B4DD6FC166F101C043
:1016100065F101016C531DE05F5302E1605319E075
:101620005E5305E15D5303E15C51170812E25EC1B0
:1016300072F15DC171F15CC170F15BC16FF1010EBE
:10164000746F1B0E736F766B400E756F0001E8DDD3
:1016500001016F6B6F51000114EC01F001016F2B60
:10166000006E726F000163DD040E01016F5DF2E137
:10167000010142D60001B1EF0BF0F86AD09E138E43
:10168000EA6AE96AC150C00B0F09C16E070EB46E59
:10169000096A120E226E010E236E246A020E256E56
:1016A000266E276A286A400E296E570E2A6E460E4D
:1016B0002B6E470E2C6E4B0E2D6E2E6A010E2F6E6A
:1016C000306E020E316E326A010E336E346A040ED1
:1016D000356E100E366E396A8D6BCE6BCF6BD36B59
:1016E000D46BD56B010E0A6E94948B94C80E0101D5
:1016F000626F000196DCF2CF61F1F29EFF0EA96EDF
:10170000A69CA69EA680A850010161BFF28E000A89
:1017100003E1938681B644D00001C1D4D1B10FD08A
:10172000320E0101626F00017CDC94948B94320EC6
:101730000101626F000175DC94948B84EFD7010185
:10174000616B6151000124EC01F00101612B006E1D
:10175000726F0001ECDC170E0101615DF2E1000126
:10176000C2D5FF0EA96EA86AA69CA69EA684F2CF3B
:1017700000F0F29E0F01550EA76EAA0EA76EA6826C
:10178000A6B2FED7A6940050F212080E0101616FB6
:10179000FA0E626F000145DC0101612FF9D7FF00ED
:0817A000000100EF0CF0030052
:0200000400F00A
:0100FF0001FF
:020000040030CA
:0E000000200E3E1E008381000FC00FE00F4057
:00000001FF
;PIC18F4550
